{"abi":[{"type":"constructor","inputs":[],"stateMutability":"nonpayable"},{"type":"function","name":"addVerificationRecord","inputs":[{"name":"tokenId","type":"uint256","internalType":"uint256"},{"name":"documentHash","type":"string","internalType":"string"},{"name":"notes","type":"string","internalType":"string"},{"name":"approved","type":"bool","internalType":"bool"}],"outputs":[],"stateMutability":"nonpayable"},{"type":"function","name":"approve","inputs":[{"name":"to","type":"address","internalType":"address"},{"name":"tokenId","type":"uint256","internalType":"uint256"}],"outputs":[],"stateMutability":"nonpayable"},{"type":"function","name":"balanceOf","inputs":[{"name":"owner","type":"address","internalType":"address"}],"outputs":[{"name":"","type":"uint256","internalType":"uint256"}],"stateMutability":"view"},{"type":"function","name":"childTokensOf","inputs":[{"name":"parentTokenId","type":"uint256","internalType":"uint256"},{"name":"childContract","type":"address","internalType":"address"}],"outputs":[{"name":"","type":"uint256[]","internalType":"uint256[]"}],"stateMutability":"view"},{"type":"function","name":"getApproved","inputs":[{"name":"tokenId","type":"uint256","internalType":"uint256"}],"outputs":[{"name":"","type":"address","internalType":"address"}],"stateMutability":"view"},{"type":"function","name":"getChildTokens","inputs":[{"name":"parentTokenId","type":"uint256","internalType":"uint256"}],"outputs":[{"name":"","type":"uint256[]","internalType":"uint256[]"}],"stateMutability":"view"},{"type":"function","name":"getMintedCounts","inputs":[],"outputs":[{"name":"projects","type":"uint256","internalType":"uint256"},{"name":"buildings","type":"uint256","internalType":"uint256"},{"name":"storeys","type":"uint256","internalType":"uint256"},{"name":"spaces","type":"uint256","internalType":"uint256"},{"name":"components","type":"uint256","internalType":"uint256"}],"stateMutability":"view"},{"type":"function","name":"getNodeEdges","inputs":[{"name":"tokenId","type":"uint256","internalType":"uint256"}],"outputs":[{"name":"","type":"tuple[]","internalType":"struct BuildingGraphNFT.GraphEdge[]","components":[{"name":"fromTokenId","type":"uint256","internalType":"uint256"},{"name":"toTokenId","type":"uint256","internalType":"uint256"},{"name":"connectionType","type":"string","internalType":"string"},{"name":"edgeProperties","type":"string","internalType":"string"},{"name":"kuzuEdgeId","type":"bytes32","internalType":"bytes32"},{"name":"bidirectional","type":"bool","internalType":"bool"}]}],"stateMutability":"view"},{"type":"function","name":"getParentToken","inputs":[{"name":"childTokenId","type":"uint256","internalType":"uint256"}],"outputs":[{"name":"","type":"uint256","internalType":"uint256"}],"stateMutability":"view"},{"type":"function","name":"getSubgraph","inputs":[{"name":"rootTokenId","type":"uint256","internalType":"uint256"}],"outputs":[{"name":"tokenIds","type":"uint256[]","internalType":"uint256[]"},{"name":"nodes","type":"tuple[]","internalType":"struct BuildingGraphNFT.GraphNodeMetadata[]","components":[{"name":"tokenType","type":"uint8","internalType":"enum BuildingGraphNFT.TokenType"},{"name":"kuzuElementId","type":"string","internalType":"string"},{"name":"topologicVertexId","type":"string","internalType":"string"},{"name":"ifcGuid","type":"string","internalType":"string"},{"name":"ifcType","type":"string","internalType":"string"},{"name":"name","type":"string","internalType":"string"},{"name":"x","type":"int256","internalType":"int256"},{"name":"y","type":"int256","internalType":"int256"},{"name":"z","type":"int256","internalType":"int256"},{"name":"fileId","type":"bytes32","internalType":"bytes32"},{"name":"buildingId","type":"bytes32","internalType":"bytes32"},{"name":"parentTokenId","type":"uint256","internalType":"uint256"},{"name":"childTokenIds","type":"uint256[]","internalType":"uint256[]"},{"name":"status","type":"uint8","internalType":"enum BuildingGraphNFT.ConstructionStatus"},{"name":"mintedAt","type":"uint256","internalType":"uint256"},{"name":"exists","type":"bool","internalType":"bool"}]},{"name":"edges","type":"tuple[]","internalType":"struct BuildingGraphNFT.GraphEdge[]","components":[{"name":"fromTokenId","type":"uint256","internalType":"uint256"},{"name":"toTokenId","type":"uint256","internalType":"uint256"},{"name":"connectionType","type":"string","internalType":"string"},{"name":"edgeProperties","type":"string","internalType":"string"},{"name":"kuzuEdgeId","type":"bytes32","internalType":"bytes32"},{"name":"bidirectional","type":"bool","internalType":"bool"}]}],"stateMutability":"view"},{"type":"function","name":"getTokenByIfcGuid","inputs":[{"name":"ifcGuid","type":"string","internalType":"string"}],"outputs":[{"name":"","type":"uint256","internalType":"uint256"}],"stateMutability":"view"},{"type":"function","name":"getTokenByKuzuId","inputs":[{"name":"kuzuElementId","type":"string","internalType":"string"}],"outputs":[{"name":"","type":"uint256","internalType":"uint256"}],"stateMutability":"view"},{"type":"function","name":"getTokenByTopologicId","inputs":[{"name":"topologicVertexId","type":"string","internalType":"string"}],"outputs":[{"name":"","type":"uint256","internalType":"uint256"}],"stateMutability":"view"},{"type":"function","name":"getTokenType","inputs":[{"name":"tokenId","type":"uint256","internalType":"uint256"}],"outputs":[{"name":"","type":"uint8","internalType":"enum BuildingGraphNFT.TokenType"}],"stateMutability":"pure"},{"type":"function","name":"getTokensByIfcType","inputs":[{"name":"ifcType","type":"string","internalType":"string"}],"outputs":[{"name":"","type":"uint256[]","internalType":"uint256[]"}],"stateMutability":"view"},{"type":"function","name":"getVerificationRecords","inputs":[{"name":"tokenId","type":"uint256","internalType":"uint256"}],"outputs":[{"name":"","type":"tuple[]","internalType":"struct BuildingGraphNFT.VerificationRecord[]","components":[{"name":"verifier","type":"address","internalType":"address"},{"name":"timestamp","type":"uint256","internalType":"uint256"},{"name":"documentHash","type":"string","internalType":"string"},{"name":"notes","type":"string","internalType":"string"},{"name":"approved","type":"bool","internalType":"bool"}]}],"stateMutability":"view"},{"type":"function","name":"ifcGuidToTokenId","inputs":[{"name":"","type":"string","internalType":"string"}],"outputs":[{"name":"","type":"uint256","internalType":"uint256"}],"stateMutability":"view"},{"type":"function","name":"isApprovedForAll","inputs":[{"name":"owner","type":"address","internalType":"address"},{"name":"operator","type":"address","internalType":"address"}],"outputs":[{"name":"","type":"bool","internalType":"bool"}],"stateMutability":"view"},{"type":"function","name":"kuzuToTokenId","inputs":[{"name":"","type":"bytes32","internalType":"bytes32"}],"outputs":[{"name":"","type":"uint256","internalType":"uint256"}],"stateMutability":"view"},{"type":"function","name":"mintBuildingGraph","inputs":[{"name":"to","type":"address","internalType":"address"},{"name":"fileId","type":"bytes32","internalType":"bytes32"},{"name":"projectName","type":"string","internalType":"string"},{"name":"nodes","type":"tuple[]","internalType":"struct BuildingGraphNFT.GraphNodeMetadata[]","components":[{"name":"tokenType","type":"uint8","internalType":"enum BuildingGraphNFT.TokenType"},{"name":"kuzuElementId","type":"string","internalType":"string"},{"name":"topologicVertexId","type":"string","internalType":"string"},{"name":"ifcGuid","type":"string","internalType":"string"},{"name":"ifcType","type":"string","internalType":"string"},{"name":"name","type":"string","internalType":"string"},{"name":"x","type":"int256","internalType":"int256"},{"name":"y","type":"int256","internalType":"int256"},{"name":"z","type":"int256","internalType":"int256"},{"name":"fileId","type":"bytes32","internalType":"bytes32"},{"name":"buildingId","type":"bytes32","internalType":"bytes32"},{"name":"parentTokenId","type":"uint256","internalType":"uint256"},{"name":"childTokenIds","type":"uint256[]","internalType":"uint256[]"},{"name":"status","type":"uint8","internalType":"enum BuildingGraphNFT.ConstructionStatus"},{"name":"mintedAt","type":"uint256","internalType":"uint256"},{"name":"exists","type":"bool","internalType":"bool"}]},{"name":"edges","type":"tuple[]","internalType":"struct BuildingGraphNFT.GraphEdge[]","components":[{"name":"fromTokenId","type":"uint256","internalType":"uint256"},{"name":"toTokenId","type":"uint256","internalType":"uint256"},{"name":"connectionType","type":"string","internalType":"string"},{"name":"edgeProperties","type":"string","internalType":"string"},{"name":"kuzuEdgeId","type":"bytes32","internalType":"bytes32"},{"name":"bidirectional","type":"bool","internalType":"bool"}]}],"outputs":[{"name":"projectTokenId","type":"uint256","internalType":"uint256"}],"stateMutability":"nonpayable"},{"type":"function","name":"name","inputs":[],"outputs":[{"name":"","type":"string","internalType":"string"}],"stateMutability":"view"},{"type":"function","name":"nodeEdges","inputs":[{"name":"","type":"uint256","internalType":"uint256"},{"name":"","type":"uint256","internalType":"uint256"}],"outputs":[{"name":"fromTokenId","type":"uint256","internalType":"uint256"},{"name":"toTokenId","type":"uint256","internalType":"uint256"},{"name":"connectionType","type":"string","internalType":"string"},{"name":"edgeProperties","type":"string","internalType":"string"},{"name":"kuzuEdgeId","type":"bytes32","internalType":"bytes32"},{"name":"bidirectional","type":"bool","internalType":"bool"}],"stateMutability":"view"},{"type":"function","name":"nodeMetadata","inputs":[{"name":"","type":"uint256","internalType":"uint256"}],"outputs":[{"name":"tokenType","type":"uint8","internalType":"enum BuildingGraphNFT.TokenType"},{"name":"kuzuElementId","type":"string","internalType":"string"},{"name":"topologicVertexId","type":"string","internalType":"string"},{"name":"ifcGuid","type":"string","internalType":"string"},{"name":"ifcType","type":"string","internalType":"string"},{"name":"name","type":"string","internalType":"string"},{"name":"x","type":"int256","internalType":"int256"},{"name":"y","type":"int256","internalType":"int256"},{"name":"z","type":"int256","internalType":"int256"},{"name":"fileId","type":"bytes32","internalType":"bytes32"},{"name":"buildingId","type":"bytes32","internalType":"bytes32"},{"name":"parentTokenId","type":"uint256","internalType":"uint256"},{"name":"status","type":"uint8","internalType":"enum BuildingGraphNFT.ConstructionStatus"},{"name":"mintedAt","type":"uint256","internalType":"uint256"},{"name":"exists","type":"bool","internalType":"bool"}],"stateMutability":"view"},{"type":"function","name":"onERC721Received","inputs":[{"name":"operator","type":"address","internalType":"address"},{"name":"from","type":"address","internalType":"address"},{"name":"childTokenId","type":"uint256","internalType":"uint256"},{"name":"data","type":"bytes","internalType":"bytes"}],"outputs":[{"name":"","type":"bytes4","internalType":"bytes4"}],"stateMutability":"nonpayable"},{"type":"function","name":"owner","inputs":[],"outputs":[{"name":"","type":"address","internalType":"address"}],"stateMutability":"view"},{"type":"function","name":"ownerOf","inputs":[{"name":"tokenId","type":"uint256","internalType":"uint256"}],"outputs":[{"name":"","type":"address","internalType":"address"}],"stateMutability":"view"},{"type":"function","name":"ownerOfChild","inputs":[{"name":"childContract","type":"address","internalType":"address"},{"name":"childTokenId","type":"uint256","internalType":"uint256"}],"outputs":[{"name":"parentTokenOwner","type":"address","internalType":"address"},{"name":"parentTokenId","type":"uint256","internalType":"uint256"}],"stateMutability":"view"},{"type":"function","name":"parentOf","inputs":[{"name":"tokenId","type":"uint256","internalType":"uint256"}],"outputs":[{"name":"parentContract","type":"address","internalType":"address"},{"name":"parentTokenId","type":"uint256","internalType":"uint256"}],"stateMutability":"view"},{"type":"function","name":"renounceOwnership","inputs":[],"outputs":[],"stateMutability":"nonpayable"},{"type":"function","name":"rootOwnerOf","inputs":[{"name":"tokenId","type":"uint256","internalType":"uint256"}],"outputs":[{"name":"rootOwner","type":"address","internalType":"address"}],"stateMutability":"view"},{"type":"function","name":"rootOwnerOfChild","inputs":[{"name":"tokenId","type":"uint256","internalType":"uint256"}],"outputs":[{"name":"rootOwner","type":"address","internalType":"address"},{"name":"parentTokenId","type":"uint256","internalType":"uint256"},{"name":"isParent","type":"bool","internalType":"bool"}],"stateMutability":"view"},{"type":"function","name":"safeTransferChild","inputs":[{"name":"fromTokenId","type":"uint256","internalType":"uint256"},{"name":"toContract","type":"address","internalType":"address"},{"name":"toTokenId","type":"uint256","internalType":"uint256"},{"name":"childContract","type":"address","internalType":"address"},{"name":"childTokenId","type":"uint256","internalType":"uint256"},{"name":"data","type":"bytes","internalType":"bytes"}],"outputs":[],"stateMutability":"nonpayable"},{"type":"function","name":"safeTransferFrom","inputs":[{"name":"from","type":"address","internalType":"address"},{"name":"to","type":"address","internalType":"address"},{"name":"tokenId","type":"uint256","internalType":"uint256"}],"outputs":[],"stateMutability":"nonpayable"},{"type":"function","name":"safeTransferFrom","inputs":[{"name":"from","type":"address","internalType":"address"},{"name":"to","type":"address","internalType":"address"},{"name":"tokenId","type":"uint256","internalType":"uint256"},{"name":"data","type":"bytes","internalType":"bytes"}],"outputs":[],"stateMutability":"nonpayable"},{"type":"function","name":"setApprovalForAll","inputs":[{"name":"operator","type":"address","internalType":"address"},{"name":"approved","type":"bool","internalType":"bool"}],"outputs":[],"stateMutability":"nonpayable"},{"type":"function","name":"supportsInterface","inputs":[{"name":"interfaceId","type":"bytes4","internalType":"bytes4"}],"outputs":[{"name":"","type":"bool","internalType":"bool"}],"stateMutability":"view"},{"type":"function","name":"symbol","inputs":[],"outputs":[{"name":"","type":"string","internalType":"string"}],"stateMutability":"view"},{"type":"function","name":"tokenByIndex","inputs":[{"name":"index","type":"uint256","internalType":"uint256"}],"outputs":[{"name":"","type":"uint256","internalType":"uint256"}],"stateMutability":"view"},{"type":"function","name":"tokenOfOwnerByIndex","inputs":[{"name":"owner","type":"address","internalType":"address"},{"name":"index","type":"uint256","internalType":"uint256"}],"outputs":[{"name":"","type":"uint256","internalType":"uint256"}],"stateMutability":"view"},{"type":"function","name":"tokenURI","inputs":[{"name":"tokenId","type":"uint256","internalType":"uint256"}],"outputs":[{"name":"","type":"string","internalType":"string"}],"stateMutability":"view"},{"type":"function","name":"topologicToTokenId","inputs":[{"name":"","type":"string","internalType":"string"}],"outputs":[{"name":"","type":"uint256","internalType":"uint256"}],"stateMutability":"view"},{"type":"function","name":"totalSupply","inputs":[],"outputs":[{"name":"","type":"uint256","internalType":"uint256"}],"stateMutability":"view"},{"type":"function","name":"transferAsChild","inputs":[{"name":"fromContract","type":"address","internalType":"address"},{"name":"fromTokenId","type":"uint256","internalType":"uint256"},{"name":"toContract","type":"address","internalType":"address"},{"name":"toTokenId","type":"uint256","internalType":"uint256"},{"name":"tokenId","type":"uint256","internalType":"uint256"},{"name":"data","type":"bytes","internalType":"bytes"}],"outputs":[],"stateMutability":"nonpayable"},{"type":"function","name":"transferChild","inputs":[{"name":"fromTokenId","type":"uint256","internalType":"uint256"},{"name":"to","type":"address","internalType":"address"},{"name":"childContract","type":"address","internalType":"address"},{"name":"childTokenId","type":"uint256","internalType":"uint256"}],"outputs":[],"stateMutability":"nonpayable"},{"type":"function","name":"transferFrom","inputs":[{"name":"from","type":"address","internalType":"address"},{"name":"to","type":"address","internalType":"address"},{"name":"tokenId","type":"uint256","internalType":"uint256"}],"outputs":[],"stateMutability":"nonpayable"},{"type":"function","name":"transferFromParent","inputs":[{"name":"fromContract","type":"address","internalType":"address"},{"name":"fromTokenId","type":"uint256","internalType":"uint256"},{"name":"to","type":"address","internalType":"address"},{"name":"tokenId","type":"uint256","internalType":"uint256"},{"name":"data","type":"bytes","internalType":"bytes"}],"outputs":[],"stateMutability":"nonpayable"},{"type":"function","name":"transferOwnership","inputs":[{"name":"newOwner","type":"address","internalType":"address"}],"outputs":[],"stateMutability":"nonpayable"},{"type":"function","name":"transferToParent","inputs":[{"name":"from","type":"address","internalType":"address"},{"name":"toContract","type":"address","internalType":"address"},{"name":"toTokenId","type":"uint256","internalType":"uint256"},{"name":"tokenId","type":"uint256","internalType":"uint256"},{"name":"data","type":"bytes","internalType":"bytes"}],"outputs":[],"stateMutability":"nonpayable"},{"type":"function","name":"updateConstructionStatus","inputs":[{"name":"tokenId","type":"uint256","internalType":"uint256"},{"name":"newStatus","type":"uint8","internalType":"enum BuildingGraphNFT.ConstructionStatus"}],"outputs":[],"stateMutability":"nonpayable"},{"type":"function","name":"verificationRecords","inputs":[{"name":"","type":"uint256","internalType":"uint256"},{"name":"","type":"uint256","internalType":"uint256"}],"outputs":[{"name":"verifier","type":"address","internalType":"address"},{"name":"timestamp","type":"uint256","internalType":"uint256"},{"name":"documentHash","type":"string","internalType":"string"},{"name":"notes","type":"string","internalType":"string"},{"name":"approved","type":"bool","internalType":"bool"}],"stateMutability":"view"},{"type":"event","name":"Approval","inputs":[{"name":"owner","type":"address","indexed":true,"internalType":"address"},{"name":"approved","type":"address","indexed":true,"internalType":"address"},{"name":"tokenId","type":"uint256","indexed":true,"internalType":"uint256"}],"anonymous":false},{"type":"event","name":"ApprovalForAll","inputs":[{"name":"owner","type":"address","indexed":true,"internalType":"address"},{"name":"operator","type":"address","indexed":true,"internalType":"address"},{"name":"approved","type":"bool","indexed":false,"internalType":"bool"}],"anonymous":false},{"type":"event","name":"BuildingGraphMinted","inputs":[{"name":"projectTokenId","type":"uint256","indexed":true,"internalType":"uint256"},{"name":"fileId","type":"bytes32","indexed":true,"internalType":"bytes32"},{"name":"projectName","type":"string","indexed":false,"internalType":"string"},{"name":"totalNodes","type":"uint256","indexed":false,"internalType":"uint256"},{"name":"totalEdges","type":"uint256","indexed":false,"internalType":"uint256"}],"anonymous":false},{"type":"event","name":"ComponentVerified","inputs":[{"name":"tokenId","type":"uint256","indexed":true,"internalType":"uint256"},{"name":"verifier","type":"address","indexed":true,"internalType":"address"},{"name":"documentHash","type":"string","indexed":false,"internalType":"string"},{"name":"approved","type":"bool","indexed":false,"internalType":"bool"}],"anonymous":false},{"type":"event","name":"ConstructionStatusUpdated","inputs":[{"name":"tokenId","type":"uint256","indexed":true,"internalType":"uint256"},{"name":"oldStatus","type":"uint8","indexed":false,"internalType":"enum BuildingGraphNFT.ConstructionStatus"},{"name":"newStatus","type":"uint8","indexed":false,"internalType":"enum BuildingGraphNFT.ConstructionStatus"},{"name":"updatedBy","type":"address","indexed":true,"internalType":"address"}],"anonymous":false},{"type":"event","name":"GraphEdgeCreated","inputs":[{"name":"fromTokenId","type":"uint256","indexed":true,"internalType":"uint256"},{"name":"toTokenId","type":"uint256","indexed":true,"internalType":"uint256"},{"name":"connectionType","type":"string","indexed":false,"internalType":"string"},{"name":"kuzuEdgeId","type":"bytes32","indexed":false,"internalType":"bytes32"}],"anonymous":false},{"type":"event","name":"GraphNodeMinted","inputs":[{"name":"tokenId","type":"uint256","indexed":true,"internalType":"uint256"},{"name":"tokenType","type":"uint8","indexed":false,"internalType":"enum BuildingGraphNFT.TokenType"},{"name":"kuzuElementId","type":"string","indexed":false,"internalType":"string"},{"name":"ifcGuid","type":"string","indexed":false,"internalType":"string"},{"name":"parentTokenId","type":"uint256","indexed":false,"internalType":"uint256"}],"anonymous":false},{"type":"event","name":"OwnershipTransferred","inputs":[{"name":"previousOwner","type":"address","indexed":true,"internalType":"address"},{"name":"newOwner","type":"address","indexed":true,"internalType":"address"}],"anonymous":false},{"type":"event","name":"ReceivedChild","inputs":[{"name":"from","type":"address","indexed":true,"internalType":"address"},{"name":"tokenId","type":"uint256","indexed":true,"internalType":"uint256"},{"name":"childContract","type":"address","indexed":true,"internalType":"address"},{"name":"childTokenId","type":"uint256","indexed":false,"internalType":"uint256"}],"anonymous":false},{"type":"event","name":"Transfer","inputs":[{"name":"from","type":"address","indexed":true,"internalType":"address"},{"name":"to","type":"address","indexed":true,"internalType":"address"},{"name":"tokenId","type":"uint256","indexed":true,"internalType":"uint256"}],"anonymous":false},{"type":"event","name":"TransferChild","inputs":[{"name":"tokenId","type":"uint256","indexed":true,"internalType":"uint256"},{"name":"to","type":"address","indexed":true,"internalType":"address"},{"name":"childContract","type":"address","indexed":true,"internalType":"address"},{"name":"childTokenId","type":"uint256","indexed":false,"internalType":"uint256"}],"anonymous":false},{"type":"event","name":"TransferFromParent","inputs":[{"name":"fromContract","type":"address","indexed":true,"internalType":"address"},{"name":"fromTokenId","type":"uint256","indexed":true,"internalType":"uint256"},{"name":"tokenId","type":"uint256","indexed":false,"internalType":"uint256"}],"anonymous":false},{"type":"event","name":"TransferToParent","inputs":[{"name":"toContract","type":"address","indexed":true,"internalType":"address"},{"name":"toTokenId","type":"uint256","indexed":true,"internalType":"uint256"},{"name":"tokenId","type":"uint256","indexed":false,"internalType":"uint256"}],"anonymous":false},{"type":"error","name":"ERC721EnumerableForbiddenBatchMint","inputs":[]},{"type":"error","name":"ERC721IncorrectOwner","inputs":[{"name":"sender","type":"address","internalType":"address"},{"name":"tokenId","type":"uint256","internalType":"uint256"},{"name":"owner","type":"address","internalType":"address"}]},{"type":"error","name":"ERC721InsufficientApproval","inputs":[{"name":"operator","type":"address","internalType":"address"},{"name":"tokenId","type":"uint256","internalType":"uint256"}]},{"type":"error","name":"ERC721InvalidApprover","inputs":[{"name":"approver","type":"address","internalType":"address"}]},{"type":"error","name":"ERC721InvalidOperator","inputs":[{"name":"operator","type":"address","internalType":"address"}]},{"type":"error","name":"ERC721InvalidOwner","inputs":[{"name":"owner","type":"address","internalType":"address"}]},{"type":"error","name":"ERC721InvalidReceiver","inputs":[{"name":"receiver","type":"address","internalType":"address"}]},{"type":"error","name":"ERC721InvalidSender","inputs":[{"name":"sender","type":"address","internalType":"address"}]},{"type":"error","name":"ERC721NonexistentToken","inputs":[{"name":"tokenId","type":"uint256","internalType":"uint256"}]},{"type":"error","name":"ERC721OutOfBoundsIndex","inputs":[{"name":"owner","type":"address","internalType":"address"},{"name":"index","type":"uint256","internalType":"uint256"}]},{"type":"error","name":"OwnableInvalidOwner","inputs":[{"name":"owner","type":"address","internalType":"address"}]},{"type":"error","name":"OwnableUnauthorizedAccount","inputs":[{"name":"account","type":"address","internalType":"address"}]},{"type":"error","name":"ReentrancyGuardReentrantCall","inputs":[]}],"bytecode":{"object":"0x60806040523461039857604080519081016001600160401b038111828210176102ae5760409081526012825271109d5a5b191a5b99c811dc985c1a0813919560721b602083015280519081016001600160401b038111828210176102ae576040526004815263424c444760e01b602082015281516001600160401b0381116102ae575f54600181811c9116801561038e575b602082101461029057601f811161032c575b50602092601f82116001146102cd57928192935f926102c2575b50508160011b915f199060031b1c1916175f555b80516001600160401b0381116102ae57600154600181811c911680156102a4575b602082101461029057601f811161022d575b50602091601f82116001146101cd579181925f926101c2575b50508160011b915f199060031b1c1916176001555b33156101af57600a8054336001600160a01b03198216811790925560405191906001600160a01b03167f8be0079c531659141344cd1fd0a4f28419497f9722a3daafe3b4186f6b6457e05f80a360017f9b779b17422d0df92223018b32b4d1fa46e071723d6817e2486d003becc55f0055615240908161039d8239f35b631e4fbdf760e01b5f525f60045260245ffd5b015190505f8061011d565b601f1982169260015f52805f20915f5b858110610215575083600195106101fd575b505050811b01600155610132565b01515f1960f88460031b161c191690555f80806101ef565b919260206001819286850151815501940192016101dd565b60015f527fb10e2d527612073b26eecdfd717e6a320cf44b4afac2b0732d9fcbe2b7fa0cf6601f830160051c81019160208410610286575b601f0160051c01905b81811061027b5750610104565b5f815560010161026e565b9091508190610265565b634e487b7160e01b5f52602260045260245ffd5b90607f16906100f2565b634e487b7160e01b5f52604160045260245ffd5b015190505f806100bd565b601f198216935f8052805f20915f5b86811061031457508360019596106102fc575b505050811b015f556100d1565b01515f1960f88460031b161c191690555f80806102ef565b919260206001819286850151815501940192016102dc565b5f80527f290decd9548b62a8d60345a988386fc84ba6bc95484008f6362f93160ef3e563601f830160051c81019160208410610384575b601f0160051c01905b81811061037957506100a3565b5f815560010161036c565b9091508190610363565b90607f1690610091565b5f80fdfe60806040526004361015610011575f80fd5b5f5f3560e01c8062ecaf2814613c0257806301ffc9a714613b4857806306fdde0314613aa6578063081812fc14613a6a578063095ea7b31461398057806311f2151914611f51578063150b7a02146138aa57806318160ddd1461388d578063215952e71461384457806321bd54fc146121f357806323b872dd146121dc5780632b345749146121b25780632f745c591461214057806342842e0e1461210957806343a61a8e146120eb57806348801b3d146120c15780634f6ccce7146120a35780635e3e268714611fa65780636074634914611f515780636352211e14611f215780636a2354bb146119f157806370a0823114611ef6578063715018a614611e9b57806374b527b014611e5c57806376aed2e114611e2d57806380972bc714611a4657806381d2f02b146119f157806388109d4e146118b45780638da5cb5b1461188c57806395d89b41146117ae578063a22cb4651461170a578063a538d0b414611667578063a79ba20014611505578063b64a35c014610d9f578063b763daf414610cf5578063b88d4fde14610c7c578063bde6dea414610c2f578063bef44f1814610b28578063bf898cb714610a5a578063c0a899f214610900578063c83aa5b21461078b578063c87b56dd14610732578063cfa3c132146106e8578063d58554bf14610596578063d98bb0871461056c578063e985e9c514610514578063eadb80b814610493578063ede05666146103f0578063f2fde38b146103675763f50acfa01461023f575f80fd5b346103645760a036600319011261036457610258613e3f565b610260613e55565b9060443591606435906084356001600160401b03811161036257610288903690600401613ef0565b50506001600160a01b03169161029f308414614502565b6102a8826145cd565b6001600160a01b03918216911681900361032b577fda19c10bf4b88776cd85f9091592a44edff2d94035ec670ebd9e8356f56f887d918160209233148015610309575b6102f591506143c8565b6102ff818661463e565b604051908152a380f35b508652600582526040808720335f90815290845220546102f59060ff166102eb565b60405162461bcd60e51b815260206004820152600f60248201526e2737ba103a37b5b2b71037bbb732b960891b6044820152606490fd5b855b80fd5b503461036457602036600319011261036457610381613e3f565b61038961478b565b6001600160a01b031680156103dc57600a80546001600160a01b0319811683179091556001600160a01b03167f8be0079c531659141344cd1fd0a4f28419497f9722a3daafe3b4186f6b6457e05f80a380f35b631e4fbdf760e01b82526004829052602482fd5b5034610364576103ff36613ca1565b908252601260205260408220805482101561048f5761041e9250614046565b5060018060a01b0381541660018201549161048361043e60028301613d7b565b9161047560ff600461045260038501613d7b565b93015416936040519687968752602087015260a0604087015260a0860190613e1b565b908482036060860152613e1b565b90151560808301520390f35b8280fd5b50346103645760403660031901126103645760406104af613e3f565b60243592906104c8906001600160a01b031630146144b6565b8281526011602052205490811561050657506104e3816145cd565b604080516001600160a01b039092168252602082019290925290819081015b0390f35b61050f906145cd565b6104e3565b5034610364576040366003190112610364576040610530613e3f565b91610539613e55565b9260018060a01b031681526005602052209060018060a01b03165f52602052602060ff60405f2054166040519015158152f35b50346103645760203660031901126103645760406020916004358152601183522054604051908152f35b5034610364576020366003190112610364576004358152600b60205260409020805460ff16906105c860018201613d7b565b906105d560028201613d7b565b6105e160038301613d7b565b916105ee60048201613d7b565b926105fb60058301613d7b565b9360068301549460078401546008850154600986015491600a87015493600b88015495600d89015460ff1697600e8a015499600f015460ff169a6040519e8f9e8f9161064681613fae565b8252602082016101e090526101e0820161065f91613e1b565b90808203906040015261067191613e1b565b8d810360608f015261068291613e1b565b8c810360808e015261069391613e1b565b8b810360a08d01526106a491613e1b565b9860c08b015260e08a01526101008901526101208801526101408701526101608601526106d081613fae565b6101808501526101a084015215156101c08301520390f35b503461036457602036600319011261036457604081600435815260116020522054908161072b57604080516001600160a01b039290921682526020820192909252f35b50306104e3565b346107875760203660031901126107875761074e6004356145cd565b505f60405161075e602082613d5a565b52610502604051610770602082613d5a565b5f8152604051918291602083526020830190613e1b565b5f80fd5b34610787576020366003190112610787576004356001600160401b038111610787576107bb903690600401613ed2565b6008546107c78161458d565b915f916020820191835b8281106108225785856107e38161458d565b915f5b828110610803576040516020808252819061050290820187613f7b565b806108106001928461405f565b5161081b828761405f565b52016107e6565b61082b81614353565b805f52600b602052600460405f20016040515f82549261084a84613cd0565b9081845260208401946001811690815f146108e357506001146108aa575b50509061087c816001969594930382613d5a565b5190208451872014610890575b50016107d1565b6108a361089c886145bf565b978961405f565b5287610889565b5f908152602081209092505b8183106108cd575050810160200161087c82610868565b60018160209254838688010152019201916108b6565b60ff191686525050151560051b8201602001905061087c82610868565b346107875760c036600319011261078757610919613e3f565b60243590610925613e6b565b91606435926084359260a4356001600160401b0381116107875761094d903690600401613ef0565b50506001600160a01b03169030821480610a48575b15610a0e577fda19c10bf4b88776cd85f9091592a44edff2d94035ec670ebd9e8356f56f887d92602092855f52601184526109a28260405f205414614386565b6109be6109ae836145cd565b6001600160a01b031633146143c8565b6109c88683614a09565b6109d2868861463e565b7f3c619d5b30fb8431c0c0094f4485f1859d63f222f36cc2104cc13e56c2b993d384604051888152a36040519384526001600160a01b031692a3005b60405162461bcd60e51b815260206004820152601260248201527153616d652d636f6e7472616374206f6e6c7960701b6044820152606490fd5b506001600160a01b0381163014610962565b34610787576020366003190112610787576004355f52600c60205260405f208054610a8481613f1d565b91610a926040519384613d5a565b81835260208301905f5260205f205f915b838310610ac0576040516020808252819061050290820188613fb8565b60066020600192604051610ad381613d24565b855481528486015483820152610aeb60028701613d7b565b6040820152610afc60038701613d7b565b60608201526004860154608082015260ff600587015416151560a0820152815201920192019190610aa3565b3461078757608036600319011261078757600435610b44613e55565b90610b4d613e6b565b6001600160a01b0316916064359190610b673085146144b6565b610b83610b73836145cd565b6001600160a01b0316331461454e565b825f5260116020528160405f205403610bea5760207f0ef52e516fb5aec15a5d3587e5480481b702b26db93c8430eca78b61990fd3f691610bc48585614a09565b610bd78582610bd2826145cd565b614ad6565b6040519485526001600160a01b031693a4005b60405162461bcd60e51b815260206004820152601960248201527f4e6f742061206368696c64206f66207468697320746f6b656e000000000000006044820152606490fd5b34610787576020366003190112610787576004356001600160401b03811161078757610c5f903690600401613ed2565b602081519101205f52600d602052602060405f2054604051908152f35b3461078757608036600319011261078757610c95613e3f565b610c9d613e55565b90604435606435926001600160401b038411610787573660238501121561078757610cd5610cf3943690602481600401359101613e9c565b92610ce1838383614073565b610cee84848484336150e6565b614bbb565b005b3461078757604036600319011261078757610d0e613e55565b306001600160a01b0390911603610d4c576004355f526010602052610502610d3860405f2061429f565b604051918291602083526020830190613f7b565b60405162461bcd60e51b815260206004820152602560248201527f4f6e6c792073616d652d636f6e7472616374206368696c6472656e20737570706044820152641bdc9d195960da1b6064820152608490fd5b3461078757602036600319011261078757600435805f52600b60205260ff600f60405f20015416156114c0576040516204e22091610ddd8383613d5a565b61271082526020820190601f1984019283368437601754918265048c2739500001928365048c273950001161134f5765048c273950010180931161134f57610e2483613f1d565b92610e326040519485613d5a565b808452610e41601f1991613f1d565b013660208501375f906001948351156114ac57819052949594600190610e67908561405f565b525f95610e776040519687613d5a565b61271086523660208701375b8381106113f1578585610e958261458d565b610e9e83613f1d565b610eab6040519182613d5a565b838152601f19610eba85613f1d565b015f5b8181106113635750505f925f5b8581106111e85750610edb84613f1d565b93610ee96040519586613d5a565b808552610ef8601f1991613f1d565b015f5b8181106111a25750505f945f5b81811061109557610f29868686604051938492606084526060840190613f7b565b928284036020840152815180855260208501946020808360051b8301019401955f915b838310610f6757868061050288888382036040850152613fb8565b919395509193602080600192601f198582030186528951908151610f8a81613fae565b81526101e080611058611000610fee610fdc610fca610fb88a8a01516102008c8b01526102008a0190613e1b565b60408a015189820360408b0152613e1b565b606089015188820360608a0152613e1b565b60808801518782036080890152613e1b565b60a087015186820360a0880152613e1b565b60c086015160c086015260e086015160e0860152610100860151610100860152610120860151610120860152610140860151610140860152610160860151610160860152610180860151858203610180870152613f7b565b936101a081015161106881613fae565b6101a08501526101c08101516101c085015201511515910152980193019301909287959396949296610f4c565b9390949195926110a5858861405f565b515f52600c60205260405f209586546110bd81613f1d565b976110cb604051998a613d5a565b81895260208901905f5260205f20905f905b83821061113a57505050505f5b875181101561112757806111206111036001938b61405f565b519761110e816145bf565b98611119828a61405f565b528761405f565b50016110ea565b5093969295509093909290600101610f08565b6006602060019260405161114d81613d24565b86548152848701548382015261116560028801613d7b565b604082015261117660038801613d7b565b60608201526004870154608082015260ff600588015416151560a08201528152019301910190916110dd565b60209060409794969597516111b681613d24565b5f81525f83820152606060408201526060808201525f60808201525f60a0820152828288010152019593949295610efb565b929491936111f6848361405f565b51611201858861405f565b5261120c848361405f565b515f52600b60205260405f2060ff600f6040519261122984613d08565b8281541661123681613fae565b845261124460018201613d7b565b602085015261125560028201613d7b565b604085015261126660038201613d7b565b606085015261127760048201613d7b565b608085015261128860058201613d7b565b60a0850152600681015460c0850152600781015460e085015260088101546101008501526009810154610120850152600a810154610140850152600b8101546101608501526112d9600c820161429f565b61018085015282600d820154166112ef81613fae565b6101a0850152600e8101546101c085015201541615156101e0820152611315858761405f565b52611320848661405f565b5061132b848361405f565b515f52600c60205260405f2054810180911161134f57919491939192600101610eca565b634e487b7160e01b5f52601160045260245ffd5b602090604096939594965161137781613d08565b5f81526060838201526060604082015260608082015260606080820152606060a08201525f60c08201525f60e08201525f6101008201525f6101208201525f6101408201525f61016082015260606101808201525f6101a08201525f6101c08201525f6101e0820152828288010152019492939194610ebd565b90919361140b61140483979597936145bf565b928461405f565b5180611420611419876145bf565b968461405f565b525f52601060205261143460405f2061429f565b935f5b855181101561149e57806114576114506001938961405f565b518961405f565b5115611464575b01611437565b61146e818861405f565b5161148261147b8b6145bf565b9a8861405f565b5281611498611491838a61405f565b518a61405f565b5261145e565b509590949093509190610e83565b634e487b7160e01b5f52603260045260245ffd5b60405162461bcd60e51b815260206004820152601960248201527f526f6f7420746f6b656e20646f6573206e6f74206578697374000000000000006044820152606490fd5b34610787576020366003190112610787576004355f52601260205260405f2080549061153082613f1d565b9161153e6040519384613d5a565b8083526020830180925f5260205f205f915b83831061160257848660405191829160208301906020845251809152604083019060408160051b85010192915f905b82821061158e57505050500390f35b919360019193955060208091603f19898203018552875190848060a01b03825116815282820151838201526080806115ea6115d8604086015160a0604087015260a0860190613e1b565b60608601518582036060870152613e1b565b9301511515910152960192019201859493919261157f565b6005602060019260405161161581613d3f565b848060a01b038654168152848601548382015261163460028701613d7b565b604082015261164560038701613d7b565b606082015260ff60048701541615156080820152815201920192019190611550565b34610787576040366003190112610787576024356004356005821015610787576116a361169e82611697816145cd565b3390614b30565b6143c8565b5f818152600b60205260409020600d01805460ff1692906116c590829061449e565b604051926116d281613fae565b83526116dd81613fae565b60208301527fb21ccf09829cfb23c3ecf6dfcab21c0ca11a98f41993f2123d618e1b47b3d2f860403393a3005b3461078757604036600319011261078757611723613e3f565b6024359081151590818303610787576001600160a01b031691821561179b5761176d90335f52600560205260405f20845f5260205260405f209060ff801983541691151516179055565b6040519081527f17307eab39ab6107e8899845ad3d59bd9653f200f220920489ca2b5937696c3160203392a3005b82630b61174360e31b5f5260045260245ffd5b34610787575f366003190112610787576040515f6001546117ce81613cd0565b8084529060018116908115611868575060011461180a575b610502836117f681850382613d5a565b604051918291602083526020830190613e1b565b60015f9081527fb10e2d527612073b26eecdfd717e6a320cf44b4afac2b0732d9fcbe2b7fa0cf6939250905b80821061184e575090915081016020016117f66117e6565b919260018160209254838588010152019101909291611836565b60ff191660208086019190915291151560051b840190910191506117f690506117e6565b34610787575f36600319011261078757600a546040516001600160a01b039091168152602090f35b346107875760c0366003190112610787576004356118d0613e55565b6064356001600160a01b038116926044359291849003610787576084359160a435906001600160401b0382116107875761191161192e923690600401613ef0565b505061191e3087146144b6565b6001600160a01b03163014614502565b61193a610b73826145cd565b815f5260116020528060405f2054036119be5780611959838693614a09565b611963838561463e565b604051908382527f0ef52e516fb5aec15a5d3587e5480481b702b26db93c8430eca78b61990fd3f660203093a46040519081527f0371ddf2288ad1ba92626a7e31c86a9d006e592cfe57d7d946ef08b13457c08b60203392a4005b60405162461bcd60e51b815260206004820152600b60248201526a139bdd08184818da1a5b1960aa1b6044820152606490fd5b34610787576020366003190112610787576004356001600160401b03811161078757602080611a2581933690600401613ed2565b604051928184925191829101835e8101600f81520301902054604051908152f35b34610787576080366003190112610787576004356024356001600160401b03811161078757611a79903690600401613ed2565b6044356001600160401b03811161078757611a98903690600401613ed2565b91606435918215159283810361078757611ab861169e84611697816145cd565b604051611ac481613d3f565b3381526020810142815260408201848152606083019788526080830191878352865f52601260205260405f208054600160401b811015611d6857611b0d91600182018155614046565b949094611e1a575184546001600160a01b0319166001600160a01b039190911617845551600184015551805160028401916001600160401b038211611d68578190611b588454613cd0565b601f8111611dea575b50602090601f8311600114611d87575f92611d7c575b50508160011b915f199060031b1c19161790555b6003820196519687516001600160401b038111611d6857611bac8254613cd0565b601f8111611d2d575b506020601f8211600114611ca0579181611c239594926004947fdc3aa61e406fa65d10be19f53b8e27357fdbe9c207c7111cf05507a872b34d269a9b9c5f92611c95575b50508160011b915f199060031b1c19161790555b51151591019060ff801983541691151516179055565b80611c70575b611c51575b611c4360405191604083526040830190613e1b565b9360208201528033940390a3005b825f52600b602052600d60405f2001600460ff19825416179055611c2e565b50825f52600b602052600360ff600d60405f20015416611c8f81613fae565b14611c29565b015190508c80611bf9565b601f19821699835f52815f209a5f5b818110611d155750927fdc3aa61e406fa65d10be19f53b8e27357fdbe9c207c7111cf05507a872b34d26999a9b6004959360019383611c239a999710611cfd575b505050811b019055611c0d565b01515f1960f88460031b161c191690558c8080611cf0565b838301518d556001909c019b60209384019301611caf565b611d5890835f5260205f20601f840160051c81019160208510611d5e575b601f0160051c0190614488565b89611bb5565b9091508190611d4b565b634e487b7160e01b5f52604160045260245ffd5b015190508a80611b77565b5f8581528281209350601f198516905b818110611dd25750908460019594939210611dba575b505050811b019055611b8b565b01515f1960f88460031b161c191690558a8080611dad565b92936020600181928786015181550195019301611d97565b611e1490855f5260205f20601f850160051c81019160208610611d5e57601f0160051c0190614488565b8b611b61565b634e487b7160e01b5f525f60045260245ffd5b34610787576020366003190112610787576020611e4b600435614436565b60405190611e5881613fae565b8152f35b34610787575f3660031901126107875760a060135460145460155460165490601754926040519485526020850152604084015260608301526080820152f35b34610787575f36600319011261078757611eb361478b565b600a80546001600160a01b031981169091555f906001600160a01b03167f8be0079c531659141344cd1fd0a4f28419497f9722a3daafe3b4186f6b6457e08280a3005b34610787576020366003190112610787576020611f19611f14613e3f565b614405565b604051908152f35b34610787576020366003190112610787576020611f3f6004356145cd565b6040516001600160a01b039091168152f35b34610787576020366003190112610787576004356001600160401b03811161078757602080611f8581933690600401613ed2565b604051928184925191829101835e8101600e81520301902054604051908152f35b346107875760a036600319011261078757611fbf613e3f565b60243590611fcb613e6b565b90606435906084356001600160401b03811161078757611fef903690600401613ef0565b50506001600160a01b0316913083036120695781612060816020937f3c619d5b30fb8431c0c0094f4485f1859d63f222f36cc2104cc13e56c2b993d3955f52601185526120418860405f205414614386565b61204d6109ae896145cd565b6120578289614a09565b610bd2826145cd565b604051908152a3005b60405162461bcd60e51b815260206004820152601260248201527113db9b1e481cd85b594b58dbdb9d1c9858dd60721b6044820152606490fd5b34610787576020366003190112610787576020611f19600435614353565b34610787576020366003190112610787576004355f52600d602052602060405f2054604051908152f35b34610787576020366003190112610787576020611f3f6004356142e7565b3461078757610cf361211a36613f41565b906121245f613e81565b926121326040519485613d5a565b5f8452610ce1838383614073565b3461078757604036600319011261078757612159613e3f565b6024359061216681614405565b8210156121955760018060a01b03165f52600660205260405f20905f52602052602060405f2054604051908152f35b63295f44f760e21b5f5260018060a01b031660045260245260445ffd5b34610787576020366003190112610787576004355f526010602052610502610d3860405f2061429f565b3461078757610cf36121ed36613f41565b91614073565b346107875760a03660031901126107875761220c613e3f565b6044356001600160401b0381116107875761222b903690600401613ed2565b606435906001600160401b038211610787573660238301121561078757816004013561225681613f1d565b926122646040519485613d5a565b8184526024602085019260051b820101903682116107875760248101925b8284106136395750505050608435926001600160401b03841161078757366023850112156107875783600401356122b881613f1d565b946122c66040519687613d5a565b8186526024602087019260051b820101903682116107875760248101925b82841061358057505050506122f761478b565b60027f9b779b17422d0df92223018b32b4d1fa46e071723d6817e2486d003becc55f0054146135715760027f9b779b17422d0df92223018b32b4d1fa46e071723d6817e2486d003becc55f00556001600160a01b0381161561352c578251156134e7576123656013546145bf565b92836013558364e8d4a510000164e8d4a510001161134f5761238e8464e8d4a510000183614d46565b60206040519561239e8288613d5a565b5f87525f3681376040516123b181613d08565b5f81526040516123c18482613d5a565b5f8152838201526040516123d58482613d5a565b5f815260408201526040516123ea8482613d5a565b5f8152606082015260409788516124018a82613d5a565b600a815269125998d41c9bda9958dd60b21b8582015260808301528660a08301525f60c08301525f60e08301525f6101008301526024356101208301525f6101408301525f6101608301526101808201525f6101a0820152426101c082015260016101e08201528664e8d4a51000015f52600b8352875f2090805161248581613fae565b61248e81613fae565b60ff80198454169116178255838101518051906001600160401b038211611d685781906124be6001860154613cd0565b601f81116134a2575b508690601f8311600114613435575f9261342a575b50508160011b915f199060031b1c19161760018301555b60408101518051906001600160401b038211611d685781906125186002860154613cd0565b601f81116133f9575b508690601f831160011461338c575f92613381575b50508160011b915f199060031b1c19161760028301555b60608101518051906001600160401b038211611d685781906125726003860154613cd0565b601f8111613350575b508690601f83116001146132e3575f926132d8575b50508160011b915f199060031b1c19161760038301555b60808101518051906001600160401b038211611d685781906125cc6004860154613cd0565b601f81116132a7575b508690601f831160011461323a575f9261322f575b50508160011b915f199060031b1c19161760048301555b60a08101518051906001600160401b038211611d685781906126266005860154613cd0565b601f81116131fe575b508690601f8311600114613191575f92613186575b50508160011b915f199060031b1c19161760058301555b60c0810151600683015560e0810151600783015561010081015160088301556101208101516009830155610140810151600a830155610160810151600b830155600c8201610180820151908151916001600160401b038311611d6857600160401b8311611d68578690825484845580851061316b575b5001905f52855f205f5b838110613159575050505090600f6101e08361270b6101a061272d96015161270281613fae565b600d860161449e565b6101c0810151600e8501550151151591019060ff801983541691151516179055565b5f5b8351811015612f3c57612742818561405f565b51612756815161275181613fae565b614c41565b906127618288614d46565b815f52600b8552895f20815161277681613fae565b61277f81613fae565b60ff8019835416911617815560018101868301518051906001600160401b038211611d685781906127b08454613cd0565b601f8111612f0e575b508990601f8311600114612eab575f92612ea0575b50508160011b915f199060031b1c19161790555b600281018b8301518051906001600160401b038211611d685781906128078454613cd0565b601f8111612e72575b508990601f8311600114612e0f575f92612e04575b50508160011b915f199060031b1c19161790555b60608201518051906001600160401b038211611d6857819061285e6003850154613cd0565b601f8111612dd3575b508890601f8311600114612d66575f92612d5b575b50508160011b915f199060031b1c19161760038201555b60808201518051906001600160401b038211611d685781906128b86004850154613cd0565b601f8111612d2a575b508890601f8311600114612cbd575f92612cb2575b50508160011b915f199060031b1c19161760048201555b60a08201518051906001600160401b038211611d685781906129126005850154613cd0565b601f8111612c81575b508890601f8311600114612c14575f92612c09575b50508160011b915f199060031b1c19161760058201555b60c0820151600682015560e0820151600782015561010082015160088201556101208201516009820155610140820151600a820155610160820151600b8201556101808201518051906001600160401b038211611d6857600160401b8211611d68578790600c84015483600c860155808410612beb575b5091818e94929796959301600c83015f52875f205f5b838110612bc6575050505094839282612a4d600198612a256101a07fa03b779031331193dddb836f080e17fbd1d0ceb468aae35751a0fa1413724405970151612a1c81613fae565b600d830161449e565b6101c0830151600e820155600f6101e0840151151591019060ff801983541691151516179055565b845f52600b8352600f825f20018860ff19825416179055845f52600b835242600e835f200155845f52600b8352600d825f200160ff198154169055828101518381519182612bb1575b50869150606083015180519081612b92575b50508383015180519081612b73575b50505050612b0a815192612aca84613fae565b8483015192612afd610160606083015192015194608084519888612aee8b9a613fae565b89528801526080870190613e1b565b9185830390860152613e1b565b9060608301520390a2610160612b20838861405f565b51015115612b4757612b4190610160612b39848961405f565b51015161463e565b0161272f565b8864e8d4a51000018103612b5c575b50612b41565b612b6d908964e8d4a510000161463e565b89612b56565b818392875194859301835e8101600f8152030190205584835f80612ab7565b818392875194859301835e8101600e8152030190205584835f80612aa8565b01205f52600d835284825f20558f8381612a96565b90929496979882600193959750519401938184015501918997969593918f95936129d4565b612c0390600c86015f5284845f209182019101614488565b8e6129be565b015190508d80612930565b9250600584015f52885f20905f935b8a601f1985168610612c6857506001945083601f19811610612c50575b505050811b016005820155612947565b01515f1960f88460031b161c191690558d8080612c40565b8282015184559485019460019093019290910190612c23565b612cac90600586015f528a5f20601f850160051c8101918c8610611d5e57601f0160051c0190614488565b8e61291b565b015190508d806128d6565b9250600484015f52885f20905f935b8a601f1985168610612d1157506001945083601f19811610612cf9575b505050811b0160048201556128ed565b01515f1960f88460031b161c191690558d8080612ce9565b8282015184559485019460019093019290910190612ccc565b612d5590600486015f528a5f20601f850160051c8101918c8610611d5e57601f0160051c0190614488565b8e6128c1565b015190508d8061287c565b9250600384015f52885f20905f935b8a601f1985168610612dba57506001945083601f19811610612da2575b505050811b016003820155612893565b01515f1960f88460031b161c191690558d8080612d92565b8282015184559485019460019093019290910190612d75565b612dfe90600386015f528a5f20601f850160051c8101918c8610611d5e57601f0160051c0190614488565b8e612867565b015190508e80612825565b5f8581528b81209350601f198516905b8c828210612e5c575050908460019594939210612e44575b505050811b019055612839565b01515f1960f88460031b161c191690558e8080612e37565b6001859682939686015181550195019301612e1f565b612e9a90855f528b5f20601f850160051c8101918d8610611d5e57601f0160051c0190614488565b8f612810565b015190508e806127ce565b5f8581528b81209350601f198516905b8c828210612ef8575050908460019594939210612ee0575b505050811b0190556127e2565b01515f1960f88460031b161c191690558e8080612ed3565b6001859682939686015181550195019301612ebb565b612f3690855f528b5f20601f850160051c8101918d8610611d5e57601f0160051c0190614488565b8f6127b9565b5086935085855f5b83518110156130d157612f57818561405f565b5180515f52600b865260ff600f895f200154161561308d5785810180515f52600b875260ff600f8a5f200154161561305057906001929181515f52600c8852612fa2828b5f206147b2565b60a0820151612ffd575b7fbd8aa6056ea7b2a2951df3c821d4d26826aa2fe6a1a3998b09d3d2f2a54d460882519151928b608081830151920151612fef8251938385948552840190613e1b565b908c8301520390a301612f44565b61304b81518984518d808701519060608801519260808901519482519661302388613d24565b8752860152840152606083015260808201528560a082015282515f52600c8a528b5f206147b2565b612fac565b885162461bcd60e51b8152600481018890526016602482015275151bc81b9bd91948191bd95cc81b9bdd08195e1a5cdd60521b6044820152606490fd5b875162461bcd60e51b815260048101879052601860248201527f46726f6d206e6f646520646f6573206e6f7420657869737400000000000000006044820152606490fd5b50859192855190516130ed845193606085526060850190613e1b565b9186840152838301527fd7bcce33585d083023fec5563acb06b6579b7ef3e09b47f7ef795bc29eb0c9e160243592808664e8d4a5100001930390a360017f9b779b17422d0df92223018b32b4d1fa46e071723d6817e2486d003becc55f0055519064e8d4a51000018152f35b825182820155918701916001016126db565b61318090845f5285845f209182019101614488565b8d6126d1565b015190508b80612644565b9250600585015f52865f20905f935b88601f19851686106131e557506001945083601f198116106131cd575b505050811b01600583015561265b565b01515f1960f88460031b161c191690558b80806131bd565b82820151845594850194600190930192909101906131a0565b61322990600587015f52885f20601f850160051c8101918a8610611d5e57601f0160051c0190614488565b8c61262f565b015190508b806125ea565b9250600485015f52865f20905f935b88601f198516861061328e57506001945083601f19811610613276575b505050811b016004830155612601565b01515f1960f88460031b161c191690558b8080613266565b8282015184559485019460019093019290910190613249565b6132d290600487015f52885f20601f850160051c8101918a8610611d5e57601f0160051c0190614488565b8c6125d5565b015190508b80612590565b9250600385015f52865f20905f935b88601f198516861061333757506001945083601f1981161061331f575b505050811b0160038301556125a7565b01515f1960f88460031b161c191690558b808061330f565b82820151845594850194600190930192909101906132f2565b61337b90600387015f52885f20601f850160051c8101918a8610611d5e57601f0160051c0190614488565b8c61257b565b015190508b80612536565b9250600285015f52865f20905f935b88601f19851686106133e057506001945083601f198116106133c8575b505050811b01600283015561254d565b01515f1960f88460031b161c191690558b80806133b8565b828201518455948501946001909301929091019061339b565b61342490600287015f52885f20601f850160051c8101918a8610611d5e57601f0160051c0190614488565b8c612521565b015190508b806124dc565b9250600185015f52865f20905f935b88601f198516861061348957506001945083601f19811610613471575b505050811b0160018301556124f3565b01515f1960f88460031b161c191690558b8080613461565b8282015184559485019460019093019290910190613444565b6134cd90600187015f52885f20601f850160051c8101918a8610611d5e57601f0160051c0190614488565b8c6124c7565b634e487b7160e01b5f52602160045260245ffd5b60405162461bcd60e51b815260206004820152601b60248201527f4d7573742068617665206174206c65617374206f6e65206e6f646500000000006044820152606490fd5b60405162461bcd60e51b815260206004820152601b60248201527f43616e6e6f74206d696e7420746f207a65726f206164647265737300000000006044820152606490fd5b633ee5aeb560e01b5f5260045ffd5b83356001600160401b0381116107875782019060c0602319833603011261078757604051906135ae82613d24565b602483013582526044830135602083015260648301356001600160401b038111610787576135e29060243691860101613ed2565b60408301526084830135916001600160401b0383116107875761362960c4602095613614879660243691840101613ed2565b606085015260a4810135608085015201613f34565b60a08201528152019301926122e4565b83356001600160401b038111610787578201906102006023198336030112610787576040519061366882613d08565b6024830135600581101561078757825260448301356001600160401b0381116107875761369b9060243691860101613ed2565b602083015260648301356001600160401b038111610787576136c39060243691860101613ed2565b604083015260848301356001600160401b038111610787576136eb9060243691860101613ed2565b606083015260a48301356001600160401b038111610787576137139060243691860101613ed2565b608083015260c48301356001600160401b0381116107875761373b9060243691860101613ed2565b60a083015260e483013560c083015261010483013560e08301526101248301356101008301526101448301356101208301526101648301356101408301526101848301356101608301526101a48301356001600160401b0381116107875760249084010136601f82011215610787578035906137b682613f1d565b916137c46040519384613d5a565b80835260208084019160051b8301019136831161078757602001905b828210613834575050506101808301526101c48301359160058310156107875761382361020460209586956101a08501526101e48101356101c085015201613f34565b6101e0820152815201930192612282565b81358152602091820191016137e0565b34610787576020366003190112610787576060600435613863816142e7565b905f52601160205260405f20546040519160018060a01b0316825280602083015215156040820152f35b34610787575f366003190112610787576020600854604051908152f35b34610787576080366003190112610787576138c3613e3f565b506138cc613e55565b6044356064356001600160401b038111610787576138ee903690600401613ef0565b602081101561390a575b604051630a85bd0160e11b8152602090f35b8160209181010312610787573590815f52600b60205260ff600f60405f20015416613936575b806138f8565b613940818361463e565b60405190815233926001600160a01b0316907f0371ddf2288ad1ba92626a7e31c86a9d006e592cfe57d7d946ef08b13457c08b90602090a4808080613930565b3461078757604036600319011261078757613999613e3f565b6024356139a5816145cd565b33151580613a57575b80613a2a575b613a175781906001600160a01b0384811691167f8c5be1e5ebec7d5bd14f71427d1e84f3dd0314c0f7b2291e5b200ac8c7c3b9255f80a45f90815260046020526040902080546001600160a01b0319166001600160a01b03909216919091179055005b63a9fbf51f60e01b5f523360045260245ffd5b506001600160a01b0381165f90815260056020908152604080832033845290915290205460ff16156139b4565b506001600160a01b0381163314156139ae565b3461078757602036600319011261078757600435613a87816145cd565b505f526004602052602060018060a01b0360405f205416604051908152f35b34610787575f366003190112610787576040515f5f54613ac581613cd0565b80845290600181169081156118685750600114613aec57610502836117f681850382613d5a565b5f8080527f290decd9548b62a8d60345a988386fc84ba6bc95484008f6362f93160ef3e563939250905b808210613b2e575090915081016020016117f66117e6565b919260018160209254838588010152019101909291613b16565b346107875760203660031901126107875760043563ffffffff60e01b811680910361078757602090631ca8ba7160e01b8114908115613bf1575b8115613b94575b506040519015158152f35b63780e9d6360e01b811491508115613bae575b5082613b89565b6380ac58cd60e01b811491508115613be0575b8115613bcf575b5082613ba7565b6301ffc9a760e01b14905082613bc8565b635b5e139f60e01b81149150613bc1565b63e799ab6960e01b81149150613b82565b3461078757613c1036613ca1565b905f52600c60205260405f2090815481101561078757613c2f91613cb7565b508054600182015491613c4460028201613d7b565b613c90613c5360038401613d7b565b613c8260ff6005600487015496015416936040519788978852602088015260c0604088015260c0870190613e1b565b908582036060870152613e1b565b916080840152151560a08301520390f35b6040906003190112610787576004359060243590565b80548210156114ac575f52600660205f20910201905f90565b90600182811c92168015613cfe575b6020831014613cea57565b634e487b7160e01b5f52602260045260245ffd5b91607f1691613cdf565b61020081019081106001600160401b03821117611d6857604052565b60c081019081106001600160401b03821117611d6857604052565b60a081019081106001600160401b03821117611d6857604052565b90601f801991011681019081106001600160401b03821117611d6857604052565b9060405191825f825492613d8e84613cd0565b8084529360018116908115613df95750600114613db5575b50613db392500383613d5a565b565b90505f9291925260205f20905f915b818310613ddd575050906020613db3928201015f613da6565b6020919350806001915483858901015201910190918492613dc4565b905060209250613db394915060ff191682840152151560051b8201015f613da6565b805180835260209291819084018484015e5f828201840152601f01601f1916010190565b600435906001600160a01b038216820361078757565b602435906001600160a01b038216820361078757565b604435906001600160a01b038216820361078757565b6001600160401b038111611d6857601f01601f191660200190565b929192613ea882613e81565b91613eb66040519384613d5a565b829481845281830111610787578281602093845f960137010152565b9080601f8301121561078757816020613eed93359101613e9c565b90565b9181601f84011215610787578235916001600160401b038311610787576020838186019501011161078757565b6001600160401b038111611d685760051b60200190565b3590811515820361078757565b6060906003190112610787576004356001600160a01b038116810361078757906024356001600160a01b0381168103610787579060443590565b90602080835192838152019201905f5b818110613f985750505090565b8251845260209384019390920191600101613f8b565b600511156134d357565b9080602083519182815201916020808360051b8301019401925f915b838310613fe357505050505090565b9091929394602080600192601f1985820301865288519081518152828201518382015260a0806140256115d8604086015160c0604087015260c0860190613e1b565b93608081015160808501520151151591015297019301930191939290613fd4565b80548210156114ac575f52600560205f20910201905f90565b80518210156114ac5760209160051b010190565b9091906001600160a01b038316801561428c575f838152600260205260409020546001600160a01b0316933361424f575b8415801561421c575b825f52600360205260405f2060018154019055845f52600260205260405f20836bffffffffffffffffffffffff60a01b8254161790558483877fddf252ad1be2c89b69c2b068fc378daa952ba7f163c4a11628f55a4df523b3ef5f80a41561419f57600854845f52600960205260405f205561412884614601565b81850361415f575b50506001600160a01b031680830361414757505050565b6364283d7b60e01b5f5260045260245260445260645ffd5b61416890614405565b5f1981019190821161134f575f52600660205260405f20815f526020528260405f2055825f52600760205260405f20555f80614130565b848214614128576141af85614405565b845f52600760205260405f205490865f52600660205260405f20918181036141f1575b50855f5260076020525f60408120555f526020525f6040812055614128565b815f528260205260405f2054815f52836020528060405f20555f52600760205260405f20555f6141d2565b5f85815260046020526040902080546001600160a01b0319169055855f52600360205260405f205f1981540190556140ad565b61425a843387614b30565b6140a457838561427657637e27328960e01b5f5260045260245ffd5b63177e802f60e01b5f523360045260245260445ffd5b633250574960e11b5f525f60045260245ffd5b90604051918281549182825260208201905f5260205f20925f5b8181106142ce575050613db392500383613d5a565b84548352600194850194879450602090930192016142b9565b6142f0816145cd565b815f52601160205260405f20541561432157505f52601160205260405f205490614319826145cd565b9190916142f0565b905090565b6008548110156114ac5760085f5260205f2001905f90565b80548210156114ac575f5260205f2001905f90565b6008548110156143705761436690614326565b90549060031b1c90565b63295f44f760e21b5f525f60045260245260445ffd5b1561438d57565b60405162461bcd60e51b8152602060048201526013602482015272139bdd0818da1a5b19081bd9881c185c995b9d606a1b6044820152606490fd5b156143cf57565b60405162461bcd60e51b815260206004820152600e60248201526d139bdd08185d5d1a1bdc9a5e995960921b6044820152606490fd5b6001600160a01b03168015614423575f52600360205260405f205490565b6322718ad960e21b5f525f60045260245ffd5b65048c27395000811015614482576503a35294400081101561447c576502ba7def3000811015614476576501d1a94a20001115614471575f90565b600190565b50600290565b50600390565b50600490565b818110614493575050565b5f8155600101614488565b906144a881613fae565b60ff80198354169116179055565b156144bd57565b60405162461bcd60e51b815260206004820152601b60248201527f4f6e6c792073616d652d636f6e7472616374206368696c6472656e00000000006044820152606490fd5b1561450957565b60405162461bcd60e51b815260206004820152601a60248201527f4f6e6c792073616d652d636f6e747261637420706172656e74730000000000006044820152606490fd5b1561455557565b60405162461bcd60e51b815260206004820152601060248201526f2737ba103830b932b73a1037bbb732b960811b6044820152606490fd5b9061459782613f1d565b6145a46040519182613d5a565b82815280926145b5601f1991613f1d565b0190602036910137565b5f19811461134f5760010190565b5f818152600260205260409020546001600160a01b03169081156145ef575090565b637e27328960e01b5f5260045260245ffd5b60085490600160401b821015611d6857614626826001613db39401600855600861433e565b90919082549060031b91821b915f19901b1916179055565b90815f52600b60205260ff600f60405f200154161561474e57805f52600b60205260ff600f60405f200154161561471257805f52601160205260405f20546146cd57815f52601060205260405f208054600160401b811015611d6857614626816146ae936001869401815561433e565b805f5260116020528160405f20555f52600b602052600b60405f200155565b60405162461bcd60e51b815260206004820152601860248201527f4368696c6420616c72656164792068617320706172656e7400000000000000006044820152606490fd5b60405162461bcd60e51b815260206004820152601460248201527310da1a5b1908191bd95cc81b9bdd08195e1a5cdd60621b6044820152606490fd5b60405162461bcd60e51b815260206004820152601560248201527414185c995b9d08191bd95cc81b9bdd08195e1a5cdd605a1b6044820152606490fd5b600a546001600160a01b0316330361479f57565b63118cdaa760e01b5f523360045260245ffd5b8054600160401b811015611d68576147cf91600182018155613cb7565b919091611e1a5780518255602081015160018301556002820160408201518051906001600160401b038211611d6857819061480a8454613cd0565b601f81116149d9575b50602090601f8311600114614976575f9261496b575b50508160011b915f199060031b1c19161790555b6003820160608201518051906001600160401b038211611d68576148618354613cd0565b601f811161493b575b50602090601f83116001146148ce57928260a093613db39796936005965f926148c3575b50508160011b915f199060031b1c19161790555b608081015160048501550151151591019060ff801983541691151516179055565b015190505f8061488e565b90601f19831691845f52815f20925f5b818110614923575093613db3979693600596936001938360a0981061490b575b505050811b0190556148a2565b01515f1960f88460031b161c191690555f80806148fe565b929360206001819287860151815501950193016148de565b61496590845f5260205f20601f850160051c81019160208610611d5e57601f0160051c0190614488565b5f61486a565b015190505f80614829565b5f8581528281209350601f198516905b8181106149c157509084600195949392106149a9575b505050811b01905561483d565b01515f1960f88460031b161c191690555f808061499c565b92936020600181928786015181550195019301614986565b614a0390855f5260205f20601f850160051c81019160208610611d5e57601f0160051c0190614488565b5f614813565b5f52601060205260405f20905f5b825480821015614acd5782614a2c838661433e565b90549060031b1c14614a415750600101614a17565b9192915f1981019190821161134f57614626614a60614a6e938561433e565b90549060031b1c918461433e565b80548015614ab9575f190190614a97614a87838361433e565b8154905f199060031b1b19169055565b555b805f5260116020525f60408120555f52600b6020525f600b604082200155565b634e487b7160e01b5f52603160045260245ffd5b50509050614a99565b919291906001600160a01b0381161561428c576001600160a01b0390614afd908590614eb9565b169081614b175783637e27328960e01b5f5260045260245ffd5b919290916001600160a01b031680830361414757505050565b6001600160a01b03909116801515929183614b4c575b50505090565b6001600160a01b031680821493509091908315614b98575b508215614b76575b50505f8080614b46565b5f908152600460205260408120546001600160a01b0316909114915080614b6c565b9092505f52600560205260405f20815f5260205260ff60405f205416915f614b64565b9392915f526010602052614bd160405f2061429f565b5f5b8151811015614c395783614be7828461405f565b515f818152600260205260409020546001600160a01b0316614c0e575b5050600101614bd3565b9081614c1e614c3293878b614073565b614c2b8282888c336150e6565b8589614bbb565b835f614c04565b505050509050565b614c4a81613fae565b80614c755750614c5b6013546145bf565b8060135564e8d4a51000018064e8d4a510001161134f5790565b614c7e81613fae565b60018103614cae5750614c926014546145bf565b806014556501d1a94a200001806501d1a94a20001161134f5790565b614cb781613fae565b60028103614ce75750614ccb6015546145bf565b806015556502ba7def300001806502ba7def30001161134f5790565b600390614cf381613fae565b03614d1f57614d036016546145bf565b806016556503a35294400001806503a3529440001161134f5790565b614d2a6017546145bf565b8060175565048c27395000018065048c273950001161134f5790565b9060209060405190614d588383613d5a565b5f82526001600160a01b03841693841561428c576001600160a01b03614d7e8383614eb9565b16614ea6573b614d8f575b50505050565b91614dcc91819495936040519384928392630a85bd0160e11b84523360048501525f60248501526044840152608060648401526084830190613e1b565b03815f885af15f9181614e66575b50614e2f5750503d15614e27573d90614df282613e81565b91614e006040519384613d5a565b82523d5f8284013e5b81519182614e245783633250574960e11b5f5260045260245ffd5b01fd5b606090614e09565b909291506001600160e01b03191663757a42ff60e11b01614e5457505f808080614d89565b633250574960e11b5f5260045260245ffd5b9091508381813d8311614e9f575b614e7e8183613d5a565b8101031261078757516001600160e01b03198116810361078757905f614dda565b503d614e74565b6339e3563760e11b5f525f60045260245ffd5b5f828152600260205260409020546001600160a01b03169182159182156150b3575b6001600160a01b03811692831590811561509b575b835f52600260205260405f20856bffffffffffffffffffffffff60a01b8254161790558385877fddf252ad1be2c89b69c2b068fc378daa952ba7f163c4a11628f55a4df523b3ef5f80a41561501e57600854835f52600960205260405f2055614f5883614601565b15614fd1575090506008545f19810190811161134f57815f526009602052614f8460405f205491614326565b90549060031b1c614f988161462684614326565b5f52600960205260405f20555f5260096020525f60408120556008548015614ab9575f1901614fcb614a8782600861433e565b60085590565b828403614fde5750505090565b614fe790614405565b5f1981019290831161134f575f52600660205260405f20825f526020528060405f20555f52600760205260405f20555f8080614b46565b848414614f585761502e85614405565b835f52600760205260405f205490865f52600660205260405f2091818103615070575b50845f5260076020525f60408120555f526020525f6040812055614f58565b815f528260205260405f2054815f52836020528060405f20555f52600760205260405f20555f615051565b845f52600360205260405f2060018154019055614ef0565b5f82815260046020526040902080546001600160a01b0319169055835f52600360205260405f205f198154019055614edb565b823b6150f4575b5050505050565b604051630a85bd0160e11b81526001600160a01b039182166004820152918116602483015260448201939093526080606482015291169160209082908190615140906084830190613e1b565b03815f865af15f91816151c5575b506151a357503d1561519c573d61516481613e81565b906151726040519283613d5a565b81523d5f602083013e5b805190816151975782633250574960e11b5f5260045260245ffd5b602001fd5b606061517c565b6001600160e01b03191663757a42ff60e11b01614e5457505f808080806150ed565b9091506020813d602011615202575b816151e160209383613d5a565b8101031261078757516001600160e01b03198116810361078757905f61514e565b3d91506151d456fea2646970667358221220d0e400409cfbcaa9f7b96216e1f82fab07625d2bfc2f00a8e12e536e6553f68764736f6c634300081b0033","linkReferences":{}},"methodIdentifiers":{"addVerificationRecord(uint256,string,string,bool)":"80972bc7","approve(address,uint256)":"095ea7b3","balanceOf(address)":"70a08231","childTokensOf(uint256,address)":"b763daf4","getApproved(uint256)":"081812fc","getChildTokens(uint256)":"2b345749","getMintedCounts()":"74b527b0","getNodeEdges(uint256)":"bf898cb7","getParentToken(uint256)":"d98bb087","getSubgraph(uint256)":"b64a35c0","getTokenByIfcGuid(string)":"11f21519","getTokenByKuzuId(string)":"bde6dea4","getTokenByTopologicId(string)":"6a2354bb","getTokenType(uint256)":"76aed2e1","getTokensByIfcType(string)":"c83aa5b2","getVerificationRecords(uint256)":"a79ba200","ifcGuidToTokenId(string)":"60746349","isApprovedForAll(address,address)":"e985e9c5","kuzuToTokenId(bytes32)":"48801b3d","mintBuildingGraph(address,bytes32,string,(uint8,string,string,string,string,string,int256,int256,int256,bytes32,bytes32,uint256,uint256[],uint8,uint256,bool)[],(uint256,uint256,string,string,bytes32,bool)[])":"21bd54fc","name()":"06fdde03","nodeEdges(uint256,uint256)":"00ecaf28","nodeMetadata(uint256)":"d58554bf","onERC721Received(address,address,uint256,bytes)":"150b7a02","owner()":"8da5cb5b","ownerOf(uint256)":"6352211e","ownerOfChild(address,uint256)":"eadb80b8","parentOf(uint256)":"cfa3c132","renounceOwnership()":"715018a6","rootOwnerOf(uint256)":"43a61a8e","rootOwnerOfChild(uint256)":"215952e7","safeTransferChild(uint256,address,uint256,address,uint256,bytes)":"88109d4e","safeTransferFrom(address,address,uint256)":"42842e0e","safeTransferFrom(address,address,uint256,bytes)":"b88d4fde","setApprovalForAll(address,bool)":"a22cb465","supportsInterface(bytes4)":"01ffc9a7","symbol()":"95d89b41","tokenByIndex(uint256)":"4f6ccce7","tokenOfOwnerByIndex(address,uint256)":"2f745c59","tokenURI(uint256)":"c87b56dd","topologicToTokenId(string)":"81d2f02b","totalSupply()":"18160ddd","transferAsChild(address,uint256,address,uint256,uint256,bytes)":"c0a899f2","transferChild(uint256,address,address,uint256)":"bef44f18","transferFrom(address,address,uint256)":"23b872dd","transferFromParent(address,uint256,address,uint256,bytes)":"5e3e2687","transferOwnership(address)":"f2fde38b","transferToParent(address,address,uint256,uint256,bytes)":"f50acfa0","updateConstructionStatus(uint256,uint8)":"a538d0b4","verificationRecords(uint256,uint256)":"ede05666"},"id":2}