{"abi":[{"type":"constructor","inputs":[],"stateMutability":"nonpayable"},{"type":"function","name":"addVerificationRecord","inputs":[{"name":"tokenId","type":"uint256","internalType":"uint256"},{"name":"documentHash","type":"string","internalType":"string"},{"name":"notes","type":"string","internalType":"string"},{"name":"approved","type":"bool","internalType":"bool"}],"outputs":[],"stateMutability":"nonpayable"},{"type":"function","name":"approve","inputs":[{"name":"to","type":"address","internalType":"address"},{"name":"tokenId","type":"uint256","internalType":"uint256"}],"outputs":[],"stateMutability":"nonpayable"},{"type":"function","name":"balanceOf","inputs":[{"name":"owner","type":"address","internalType":"address"}],"outputs":[{"name":"","type":"uint256","internalType":"uint256"}],"stateMutability":"view"},{"type":"function","name":"childTokensOf","inputs":[{"name":"parentTokenId","type":"uint256","internalType":"uint256"},{"name":"childContract","type":"address","internalType":"address"}],"outputs":[{"name":"","type":"uint256[]","internalType":"uint256[]"}],"stateMutability":"view"},{"type":"function","name":"getApproved","inputs":[{"name":"tokenId","type":"uint256","internalType":"uint256"}],"outputs":[{"name":"","type":"address","internalType":"address"}],"stateMutability":"view"},{"type":"function","name":"getChildTokens","inputs":[{"name":"parentTokenId","type":"uint256","internalType":"uint256"}],"outputs":[{"name":"","type":"uint256[]","internalType":"uint256[]"}],"stateMutability":"view"},{"type":"function","name":"getMintedCounts","inputs":[],"outputs":[{"name":"projects","type":"uint256","internalType":"uint256"},{"name":"buildings","type":"uint256","internalType":"uint256"},{"name":"storeys","type":"uint256","internalType":"uint256"},{"name":"spaces","type":"uint256","internalType":"uint256"},{"name":"components","type":"uint256","internalType":"uint256"}],"stateMutability":"view"},{"type":"function","name":"getNodeEdges","inputs":[{"name":"tokenId","type":"uint256","internalType":"uint256"}],"outputs":[{"name":"","type":"tuple[]","internalType":"struct BuildingGraphNFT.GraphEdge[]","components":[{"name":"fromTokenId","type":"uint256","internalType":"uint256"},{"name":"toTokenId","type":"uint256","internalType":"uint256"},{"name":"fromIndex","type":"uint256","internalType":"uint256"},{"name":"toIndex","type":"uint256","internalType":"uint256"},{"name":"connectionType","type":"string","internalType":"string"},{"name":"edgeProperties","type":"string","internalType":"string"},{"name":"kuzuEdgeId","type":"bytes32","internalType":"bytes32"},{"name":"bidirectional","type":"bool","internalType":"bool"}]}],"stateMutability":"view"},{"type":"function","name":"getParentToken","inputs":[{"name":"childTokenId","type":"uint256","internalType":"uint256"}],"outputs":[{"name":"","type":"uint256","internalType":"uint256"}],"stateMutability":"view"},{"type":"function","name":"getSubgraph","inputs":[{"name":"rootTokenId","type":"uint256","internalType":"uint256"}],"outputs":[{"name":"tokenIds","type":"uint256[]","internalType":"uint256[]"},{"name":"nodes","type":"tuple[]","internalType":"struct BuildingGraphNFT.GraphNodeMetadata[]","components":[{"name":"tokenType","type":"uint8","internalType":"enum BuildingGraphNFT.TokenType"},{"name":"kuzuElementId","type":"string","internalType":"string"},{"name":"topologicVertexId","type":"string","internalType":"string"},{"name":"ifcGuid","type":"string","internalType":"string"},{"name":"ifcType","type":"string","internalType":"string"},{"name":"name","type":"string","internalType":"string"},{"name":"x","type":"int256","internalType":"int256"},{"name":"y","type":"int256","internalType":"int256"},{"name":"z","type":"int256","internalType":"int256"},{"name":"fileId","type":"bytes32","internalType":"bytes32"},{"name":"buildingId","type":"bytes32","internalType":"bytes32"},{"name":"parentTokenId","type":"uint256","internalType":"uint256"},{"name":"childTokenIds","type":"uint256[]","internalType":"uint256[]"},{"name":"status","type":"uint8","internalType":"enum BuildingGraphNFT.ConstructionStatus"},{"name":"mintedAt","type":"uint256","internalType":"uint256"},{"name":"exists","type":"bool","internalType":"bool"}]},{"name":"edges","type":"tuple[]","internalType":"struct BuildingGraphNFT.GraphEdge[]","components":[{"name":"fromTokenId","type":"uint256","internalType":"uint256"},{"name":"toTokenId","type":"uint256","internalType":"uint256"},{"name":"fromIndex","type":"uint256","internalType":"uint256"},{"name":"toIndex","type":"uint256","internalType":"uint256"},{"name":"connectionType","type":"string","internalType":"string"},{"name":"edgeProperties","type":"string","internalType":"string"},{"name":"kuzuEdgeId","type":"bytes32","internalType":"bytes32"},{"name":"bidirectional","type":"bool","internalType":"bool"}]}],"stateMutability":"view"},{"type":"function","name":"getTokenByIfcGuid","inputs":[{"name":"ifcGuid","type":"string","internalType":"string"}],"outputs":[{"name":"","type":"uint256","internalType":"uint256"}],"stateMutability":"view"},{"type":"function","name":"getTokenByKuzuId","inputs":[{"name":"kuzuElementId","type":"string","internalType":"string"}],"outputs":[{"name":"","type":"uint256","internalType":"uint256"}],"stateMutability":"view"},{"type":"function","name":"getTokenByTopologicId","inputs":[{"name":"topologicVertexId","type":"string","internalType":"string"}],"outputs":[{"name":"","type":"uint256","internalType":"uint256"}],"stateMutability":"view"},{"type":"function","name":"getTokenType","inputs":[{"name":"tokenId","type":"uint256","internalType":"uint256"}],"outputs":[{"name":"","type":"uint8","internalType":"enum BuildingGraphNFT.TokenType"}],"stateMutability":"pure"},{"type":"function","name":"getTokensByIfcType","inputs":[{"name":"ifcType","type":"string","internalType":"string"}],"outputs":[{"name":"","type":"uint256[]","internalType":"uint256[]"}],"stateMutability":"view"},{"type":"function","name":"getVerificationRecords","inputs":[{"name":"tokenId","type":"uint256","internalType":"uint256"}],"outputs":[{"name":"","type":"tuple[]","internalType":"struct BuildingGraphNFT.VerificationRecord[]","components":[{"name":"verifier","type":"address","internalType":"address"},{"name":"timestamp","type":"uint256","internalType":"uint256"},{"name":"documentHash","type":"string","internalType":"string"},{"name":"notes","type":"string","internalType":"string"},{"name":"approved","type":"bool","internalType":"bool"}]}],"stateMutability":"view"},{"type":"function","name":"ifcGuidToTokenId","inputs":[{"name":"","type":"string","internalType":"string"}],"outputs":[{"name":"","type":"uint256","internalType":"uint256"}],"stateMutability":"view"},{"type":"function","name":"isApprovedForAll","inputs":[{"name":"owner","type":"address","internalType":"address"},{"name":"operator","type":"address","internalType":"address"}],"outputs":[{"name":"","type":"bool","internalType":"bool"}],"stateMutability":"view"},{"type":"function","name":"kuzuToTokenId","inputs":[{"name":"","type":"bytes32","internalType":"bytes32"}],"outputs":[{"name":"","type":"uint256","internalType":"uint256"}],"stateMutability":"view"},{"type":"function","name":"mintBuildingGraph","inputs":[{"name":"to","type":"address","internalType":"address"},{"name":"fileId","type":"bytes32","internalType":"bytes32"},{"name":"projectName","type":"string","internalType":"string"},{"name":"nodes","type":"tuple[]","internalType":"struct BuildingGraphNFT.GraphNodeMetadata[]","components":[{"name":"tokenType","type":"uint8","internalType":"enum BuildingGraphNFT.TokenType"},{"name":"kuzuElementId","type":"string","internalType":"string"},{"name":"topologicVertexId","type":"string","internalType":"string"},{"name":"ifcGuid","type":"string","internalType":"string"},{"name":"ifcType","type":"string","internalType":"string"},{"name":"name","type":"string","internalType":"string"},{"name":"x","type":"int256","internalType":"int256"},{"name":"y","type":"int256","internalType":"int256"},{"name":"z","type":"int256","internalType":"int256"},{"name":"fileId","type":"bytes32","internalType":"bytes32"},{"name":"buildingId","type":"bytes32","internalType":"bytes32"},{"name":"parentTokenId","type":"uint256","internalType":"uint256"},{"name":"childTokenIds","type":"uint256[]","internalType":"uint256[]"},{"name":"status","type":"uint8","internalType":"enum BuildingGraphNFT.ConstructionStatus"},{"name":"mintedAt","type":"uint256","internalType":"uint256"},{"name":"exists","type":"bool","internalType":"bool"}]},{"name":"edges","type":"tuple[]","internalType":"struct BuildingGraphNFT.GraphEdge[]","components":[{"name":"fromTokenId","type":"uint256","internalType":"uint256"},{"name":"toTokenId","type":"uint256","internalType":"uint256"},{"name":"fromIndex","type":"uint256","internalType":"uint256"},{"name":"toIndex","type":"uint256","internalType":"uint256"},{"name":"connectionType","type":"string","internalType":"string"},{"name":"edgeProperties","type":"string","internalType":"string"},{"name":"kuzuEdgeId","type":"bytes32","internalType":"bytes32"},{"name":"bidirectional","type":"bool","internalType":"bool"}]}],"outputs":[{"name":"projectTokenId","type":"uint256","internalType":"uint256"}],"stateMutability":"nonpayable"},{"type":"function","name":"name","inputs":[],"outputs":[{"name":"","type":"string","internalType":"string"}],"stateMutability":"view"},{"type":"function","name":"nodeEdges","inputs":[{"name":"","type":"uint256","internalType":"uint256"},{"name":"","type":"uint256","internalType":"uint256"}],"outputs":[{"name":"fromTokenId","type":"uint256","internalType":"uint256"},{"name":"toTokenId","type":"uint256","internalType":"uint256"},{"name":"fromIndex","type":"uint256","internalType":"uint256"},{"name":"toIndex","type":"uint256","internalType":"uint256"},{"name":"connectionType","type":"string","internalType":"string"},{"name":"edgeProperties","type":"string","internalType":"string"},{"name":"kuzuEdgeId","type":"bytes32","internalType":"bytes32"},{"name":"bidirectional","type":"bool","internalType":"bool"}],"stateMutability":"view"},{"type":"function","name":"nodeMetadata","inputs":[{"name":"","type":"uint256","internalType":"uint256"}],"outputs":[{"name":"tokenType","type":"uint8","internalType":"enum BuildingGraphNFT.TokenType"},{"name":"kuzuElementId","type":"string","internalType":"string"},{"name":"topologicVertexId","type":"string","internalType":"string"},{"name":"ifcGuid","type":"string","internalType":"string"},{"name":"ifcType","type":"string","internalType":"string"},{"name":"name","type":"string","internalType":"string"},{"name":"x","type":"int256","internalType":"int256"},{"name":"y","type":"int256","internalType":"int256"},{"name":"z","type":"int256","internalType":"int256"},{"name":"fileId","type":"bytes32","internalType":"bytes32"},{"name":"buildingId","type":"bytes32","internalType":"bytes32"},{"name":"parentTokenId","type":"uint256","internalType":"uint256"},{"name":"status","type":"uint8","internalType":"enum BuildingGraphNFT.ConstructionStatus"},{"name":"mintedAt","type":"uint256","internalType":"uint256"},{"name":"exists","type":"bool","internalType":"bool"}],"stateMutability":"view"},{"type":"function","name":"onERC721Received","inputs":[{"name":"operator","type":"address","internalType":"address"},{"name":"from","type":"address","internalType":"address"},{"name":"childTokenId","type":"uint256","internalType":"uint256"},{"name":"data","type":"bytes","internalType":"bytes"}],"outputs":[{"name":"","type":"bytes4","internalType":"bytes4"}],"stateMutability":"nonpayable"},{"type":"function","name":"owner","inputs":[],"outputs":[{"name":"","type":"address","internalType":"address"}],"stateMutability":"view"},{"type":"function","name":"ownerOf","inputs":[{"name":"tokenId","type":"uint256","internalType":"uint256"}],"outputs":[{"name":"","type":"address","internalType":"address"}],"stateMutability":"view"},{"type":"function","name":"ownerOfChild","inputs":[{"name":"childContract","type":"address","internalType":"address"},{"name":"childTokenId","type":"uint256","internalType":"uint256"}],"outputs":[{"name":"parentTokenOwner","type":"address","internalType":"address"},{"name":"parentTokenId","type":"uint256","internalType":"uint256"}],"stateMutability":"view"},{"type":"function","name":"parentOf","inputs":[{"name":"tokenId","type":"uint256","internalType":"uint256"}],"outputs":[{"name":"parentContract","type":"address","internalType":"address"},{"name":"parentTokenId","type":"uint256","internalType":"uint256"}],"stateMutability":"view"},{"type":"function","name":"renounceOwnership","inputs":[],"outputs":[],"stateMutability":"nonpayable"},{"type":"function","name":"rootOwnerOf","inputs":[{"name":"tokenId","type":"uint256","internalType":"uint256"}],"outputs":[{"name":"rootOwner","type":"address","internalType":"address"}],"stateMutability":"view"},{"type":"function","name":"rootOwnerOfChild","inputs":[{"name":"tokenId","type":"uint256","internalType":"uint256"}],"outputs":[{"name":"rootOwner","type":"address","internalType":"address"},{"name":"parentTokenId","type":"uint256","internalType":"uint256"},{"name":"isParent","type":"bool","internalType":"bool"}],"stateMutability":"view"},{"type":"function","name":"safeTransferChild","inputs":[{"name":"fromTokenId","type":"uint256","internalType":"uint256"},{"name":"toContract","type":"address","internalType":"address"},{"name":"toTokenId","type":"uint256","internalType":"uint256"},{"name":"childContract","type":"address","internalType":"address"},{"name":"childTokenId","type":"uint256","internalType":"uint256"},{"name":"data","type":"bytes","internalType":"bytes"}],"outputs":[],"stateMutability":"nonpayable"},{"type":"function","name":"safeTransferFrom","inputs":[{"name":"from","type":"address","internalType":"address"},{"name":"to","type":"address","internalType":"address"},{"name":"tokenId","type":"uint256","internalType":"uint256"}],"outputs":[],"stateMutability":"nonpayable"},{"type":"function","name":"safeTransferFrom","inputs":[{"name":"from","type":"address","internalType":"address"},{"name":"to","type":"address","internalType":"address"},{"name":"tokenId","type":"uint256","internalType":"uint256"},{"name":"data","type":"bytes","internalType":"bytes"}],"outputs":[],"stateMutability":"nonpayable"},{"type":"function","name":"setApprovalForAll","inputs":[{"name":"operator","type":"address","internalType":"address"},{"name":"approved","type":"bool","internalType":"bool"}],"outputs":[],"stateMutability":"nonpayable"},{"type":"function","name":"supportsInterface","inputs":[{"name":"interfaceId","type":"bytes4","internalType":"bytes4"}],"outputs":[{"name":"","type":"bool","internalType":"bool"}],"stateMutability":"view"},{"type":"function","name":"symbol","inputs":[],"outputs":[{"name":"","type":"string","internalType":"string"}],"stateMutability":"view"},{"type":"function","name":"tokenByIndex","inputs":[{"name":"index","type":"uint256","internalType":"uint256"}],"outputs":[{"name":"","type":"uint256","internalType":"uint256"}],"stateMutability":"view"},{"type":"function","name":"tokenOfOwnerByIndex","inputs":[{"name":"owner","type":"address","internalType":"address"},{"name":"index","type":"uint256","internalType":"uint256"}],"outputs":[{"name":"","type":"uint256","internalType":"uint256"}],"stateMutability":"view"},{"type":"function","name":"tokenURI","inputs":[{"name":"tokenId","type":"uint256","internalType":"uint256"}],"outputs":[{"name":"","type":"string","internalType":"string"}],"stateMutability":"view"},{"type":"function","name":"topologicToTokenId","inputs":[{"name":"","type":"string","internalType":"string"}],"outputs":[{"name":"","type":"uint256","internalType":"uint256"}],"stateMutability":"view"},{"type":"function","name":"totalSupply","inputs":[],"outputs":[{"name":"","type":"uint256","internalType":"uint256"}],"stateMutability":"view"},{"type":"function","name":"transferAsChild","inputs":[{"name":"fromContract","type":"address","internalType":"address"},{"name":"fromTokenId","type":"uint256","internalType":"uint256"},{"name":"toContract","type":"address","internalType":"address"},{"name":"toTokenId","type":"uint256","internalType":"uint256"},{"name":"tokenId","type":"uint256","internalType":"uint256"},{"name":"data","type":"bytes","internalType":"bytes"}],"outputs":[],"stateMutability":"nonpayable"},{"type":"function","name":"transferChild","inputs":[{"name":"fromTokenId","type":"uint256","internalType":"uint256"},{"name":"to","type":"address","internalType":"address"},{"name":"childContract","type":"address","internalType":"address"},{"name":"childTokenId","type":"uint256","internalType":"uint256"}],"outputs":[],"stateMutability":"nonpayable"},{"type":"function","name":"transferFrom","inputs":[{"name":"from","type":"address","internalType":"address"},{"name":"to","type":"address","internalType":"address"},{"name":"tokenId","type":"uint256","internalType":"uint256"}],"outputs":[],"stateMutability":"nonpayable"},{"type":"function","name":"transferFromParent","inputs":[{"name":"fromContract","type":"address","internalType":"address"},{"name":"fromTokenId","type":"uint256","internalType":"uint256"},{"name":"to","type":"address","internalType":"address"},{"name":"tokenId","type":"uint256","internalType":"uint256"},{"name":"data","type":"bytes","internalType":"bytes"}],"outputs":[],"stateMutability":"nonpayable"},{"type":"function","name":"transferOwnership","inputs":[{"name":"newOwner","type":"address","internalType":"address"}],"outputs":[],"stateMutability":"nonpayable"},{"type":"function","name":"transferToParent","inputs":[{"name":"from","type":"address","internalType":"address"},{"name":"toContract","type":"address","internalType":"address"},{"name":"toTokenId","type":"uint256","internalType":"uint256"},{"name":"tokenId","type":"uint256","internalType":"uint256"},{"name":"data","type":"bytes","internalType":"bytes"}],"outputs":[],"stateMutability":"nonpayable"},{"type":"function","name":"updateConstructionStatus","inputs":[{"name":"tokenId","type":"uint256","internalType":"uint256"},{"name":"newStatus","type":"uint8","internalType":"enum BuildingGraphNFT.ConstructionStatus"}],"outputs":[],"stateMutability":"nonpayable"},{"type":"function","name":"verificationRecords","inputs":[{"name":"","type":"uint256","internalType":"uint256"},{"name":"","type":"uint256","internalType":"uint256"}],"outputs":[{"name":"verifier","type":"address","internalType":"address"},{"name":"timestamp","type":"uint256","internalType":"uint256"},{"name":"documentHash","type":"string","internalType":"string"},{"name":"notes","type":"string","internalType":"string"},{"name":"approved","type":"bool","internalType":"bool"}],"stateMutability":"view"},{"type":"event","name":"Approval","inputs":[{"name":"owner","type":"address","indexed":true,"internalType":"address"},{"name":"approved","type":"address","indexed":true,"internalType":"address"},{"name":"tokenId","type":"uint256","indexed":true,"internalType":"uint256"}],"anonymous":false},{"type":"event","name":"ApprovalForAll","inputs":[{"name":"owner","type":"address","indexed":true,"internalType":"address"},{"name":"operator","type":"address","indexed":true,"internalType":"address"},{"name":"approved","type":"bool","indexed":false,"internalType":"bool"}],"anonymous":false},{"type":"event","name":"BuildingGraphMinted","inputs":[{"name":"projectTokenId","type":"uint256","indexed":true,"internalType":"uint256"},{"name":"fileId","type":"bytes32","indexed":true,"internalType":"bytes32"},{"name":"projectName","type":"string","indexed":false,"internalType":"string"},{"name":"totalNodes","type":"uint256","indexed":false,"internalType":"uint256"},{"name":"totalEdges","type":"uint256","indexed":false,"internalType":"uint256"}],"anonymous":false},{"type":"event","name":"ComponentVerified","inputs":[{"name":"tokenId","type":"uint256","indexed":true,"internalType":"uint256"},{"name":"verifier","type":"address","indexed":true,"internalType":"address"},{"name":"documentHash","type":"string","indexed":false,"internalType":"string"},{"name":"approved","type":"bool","indexed":false,"internalType":"bool"}],"anonymous":false},{"type":"event","name":"ConstructionStatusUpdated","inputs":[{"name":"tokenId","type":"uint256","indexed":true,"internalType":"uint256"},{"name":"oldStatus","type":"uint8","indexed":false,"internalType":"enum BuildingGraphNFT.ConstructionStatus"},{"name":"newStatus","type":"uint8","indexed":false,"internalType":"enum BuildingGraphNFT.ConstructionStatus"},{"name":"updatedBy","type":"address","indexed":true,"internalType":"address"}],"anonymous":false},{"type":"event","name":"GraphEdgeCreated","inputs":[{"name":"fromTokenId","type":"uint256","indexed":true,"internalType":"uint256"},{"name":"toTokenId","type":"uint256","indexed":true,"internalType":"uint256"},{"name":"connectionType","type":"string","indexed":false,"internalType":"string"},{"name":"kuzuEdgeId","type":"bytes32","indexed":false,"internalType":"bytes32"}],"anonymous":false},{"type":"event","name":"GraphNodeMinted","inputs":[{"name":"tokenId","type":"uint256","indexed":true,"internalType":"uint256"},{"name":"tokenType","type":"uint8","indexed":false,"internalType":"enum BuildingGraphNFT.TokenType"},{"name":"kuzuElementId","type":"string","indexed":false,"internalType":"string"},{"name":"ifcGuid","type":"string","indexed":false,"internalType":"string"},{"name":"parentTokenId","type":"uint256","indexed":false,"internalType":"uint256"}],"anonymous":false},{"type":"event","name":"OwnershipTransferred","inputs":[{"name":"previousOwner","type":"address","indexed":true,"internalType":"address"},{"name":"newOwner","type":"address","indexed":true,"internalType":"address"}],"anonymous":false},{"type":"event","name":"ReceivedChild","inputs":[{"name":"from","type":"address","indexed":true,"internalType":"address"},{"name":"tokenId","type":"uint256","indexed":true,"internalType":"uint256"},{"name":"childContract","type":"address","indexed":true,"internalType":"address"},{"name":"childTokenId","type":"uint256","indexed":false,"internalType":"uint256"}],"anonymous":false},{"type":"event","name":"Transfer","inputs":[{"name":"from","type":"address","indexed":true,"internalType":"address"},{"name":"to","type":"address","indexed":true,"internalType":"address"},{"name":"tokenId","type":"uint256","indexed":true,"internalType":"uint256"}],"anonymous":false},{"type":"event","name":"TransferChild","inputs":[{"name":"tokenId","type":"uint256","indexed":true,"internalType":"uint256"},{"name":"to","type":"address","indexed":true,"internalType":"address"},{"name":"childContract","type":"address","indexed":true,"internalType":"address"},{"name":"childTokenId","type":"uint256","indexed":false,"internalType":"uint256"}],"anonymous":false},{"type":"event","name":"TransferFromParent","inputs":[{"name":"fromContract","type":"address","indexed":true,"internalType":"address"},{"name":"fromTokenId","type":"uint256","indexed":true,"internalType":"uint256"},{"name":"tokenId","type":"uint256","indexed":false,"internalType":"uint256"}],"anonymous":false},{"type":"event","name":"TransferToParent","inputs":[{"name":"toContract","type":"address","indexed":true,"internalType":"address"},{"name":"toTokenId","type":"uint256","indexed":true,"internalType":"uint256"},{"name":"tokenId","type":"uint256","indexed":false,"internalType":"uint256"}],"anonymous":false},{"type":"error","name":"ERC721EnumerableForbiddenBatchMint","inputs":[]},{"type":"error","name":"ERC721IncorrectOwner","inputs":[{"name":"sender","type":"address","internalType":"address"},{"name":"tokenId","type":"uint256","internalType":"uint256"},{"name":"owner","type":"address","internalType":"address"}]},{"type":"error","name":"ERC721InsufficientApproval","inputs":[{"name":"operator","type":"address","internalType":"address"},{"name":"tokenId","type":"uint256","internalType":"uint256"}]},{"type":"error","name":"ERC721InvalidApprover","inputs":[{"name":"approver","type":"address","internalType":"address"}]},{"type":"error","name":"ERC721InvalidOperator","inputs":[{"name":"operator","type":"address","internalType":"address"}]},{"type":"error","name":"ERC721InvalidOwner","inputs":[{"name":"owner","type":"address","internalType":"address"}]},{"type":"error","name":"ERC721InvalidReceiver","inputs":[{"name":"receiver","type":"address","internalType":"address"}]},{"type":"error","name":"ERC721InvalidSender","inputs":[{"name":"sender","type":"address","internalType":"address"}]},{"type":"error","name":"ERC721NonexistentToken","inputs":[{"name":"tokenId","type":"uint256","internalType":"uint256"}]},{"type":"error","name":"ERC721OutOfBoundsIndex","inputs":[{"name":"owner","type":"address","internalType":"address"},{"name":"index","type":"uint256","internalType":"uint256"}]},{"type":"error","name":"OwnableInvalidOwner","inputs":[{"name":"owner","type":"address","internalType":"address"}]},{"type":"error","name":"OwnableUnauthorizedAccount","inputs":[{"name":"account","type":"address","internalType":"address"}]},{"type":"error","name":"ReentrancyGuardReentrantCall","inputs":[]}],"bytecode":{"object":"0x60803462000378576001600160401b0390604090808201838111828210176200036457825260128152602071109d5a5b191a5b99c811dc985c1a0813919560721b81830152825193838501858110828211176200036457845260049182865263424c444760e01b8187015283519082821162000270575f54916001958684811c9416801562000359575b8385101462000346578190601f94858111620002f3575b5083908583116001146200028f575f9262000283575b50505f19600383901b1c191690861b175f555b8651928311620002705784548581811c9116801562000265575b8282101462000252578281116200020a575b5080918311600114620001a2575081929394955f9262000196575b50505f19600383901b1c191690831b1782555b3315620001805750600a8054336001600160a01b0319821681179092559251926001600160a01b03167f8be0079c531659141344cd1fd0a4f28419497f9722a3daafe3b4186f6b6457e05f80a3600b5561549e90816200037d8239f35b6024905f845191631e4fbdf760e01b8352820152fd5b015190505f8062000110565b90601f19831696855f52825f20925f905b898210620001f25750508386979896959610620001d9575b505050811b01825562000123565b01515f1960f88460031b161c191690555f8080620001cb565b808885968294968601518155019501930190620001b3565b855f52815f208380860160051c82019284871062000248575b0160051c019086905b8281106200023c575050620000f5565b5f81550186906200022c565b9250819262000223565b602285634e487b7160e01b5f525260245ffd5b90607f1690620000e3565b604184634e487b7160e01b5f525260245ffd5b015190505f80620000b6565b90889350601f198316915f8052855f20925f5b87828210620002dc5750508411620002c3575b505050811b015f55620000c9565b01515f1960f88460031b161c191690555f8080620002b5565b8385015186558c97909501949384019301620002a2565b9091505f8052835f208580850160051c8201928686106200033c575b918a91869594930160051c01915b8281106200032d575050620000a0565b5f81558594508a91016200031d565b925081926200030f565b602286634e487b7160e01b5f525260245ffd5b93607f169362000089565b634e487b7160e01b5f52604160045260245ffd5b5f80fdfe60806040526004361015610011575f80fd5b5f3560e01c8062ecaf2814613d4e57806301ffc9a714613c945780630208e424146124c557806306fdde031461241e578063081812fc146123e2578063095ea7b31461230157806311f2151914611f2b578063150b7a021461222b57806318160ddd1461220e578063215952e7146121c557806323b872dd146121ae5780632b345749146121845780632f745c591461210457806342842e0e146120d757806343a61a8e146120b957806348801b3d1461208f5780634f6ccce7146120715780635e3e268714611f745780636074634914611f2b5780636352211e14611efb5780636a2354bb146119df57806370a0823114611ed0578063715018a614611e7557806374b527b014611e3657806376aed2e114611e0757806380972bc714611a3b57806381d2f02b146119df57806388109d4e1461189f5780638da5cb5b1461187757806395d89b4114611799578063a22cb465146116ef578063a538d0b41461164f578063a79ba200146114ee578063b64a35c014610d79578063b763daf414610ccf578063b88d4fde14610c56578063bde6dea414610c09578063bef44f1814610b0d578063bf898cb714610a2e578063c0a899f2146108e8578063c83aa5b214610766578063c87b56dd14610715578063cfa3c132146106cb578063d58554bf1461057b578063d98bb08714610551578063e985e9c5146104ff578063eadb80b814610481578063ede05666146103e3578063f2fde38b1461035c5763f50acfa01461023e575f80fd5b346103585760a036600319011261035857610257614001565b61025f614017565b9060443591606435906084356001600160401b038111610358576102879036906004016140d6565b50506001600160a01b03908116926102a0308514614750565b816102aa84614bf1565b91169182911603610321577fda19c10bf4b88776cd85f9091592a44edff2d94035ec670ebd9e8356f56f887d918160209233148015610301575b6102ee9150614611565b6102f88186614850565b604051908152a3005b505f526005825260405f20335f5282526102ee60ff60405f2054166102e4565b60405162461bcd60e51b815260206004820152600f60248201526e2737ba103a37b5b2b71037bbb732b960891b6044820152606490fd5b5f80fd5b3461035857602036600319011261035857610375614001565b61037d6147e9565b6001600160a01b039081169081156103cb57600a54826001600160601b0360a01b821617600a55167f8be0079c531659141344cd1fd0a4f28419497f9722a3daafe3b4186f6b6457e05f80a3005b604051631e4fbdf760e01b81525f6004820152602490fd5b34610358576103f136613e06565b905f52601360205260405f209081548110156103585761041091614243565b5060018060a01b0381541660018201549161047561043060028301613f19565b9161046760ff600461044460038501613f19565b93015416936040519687968752602087015260a0604087015260a0860190613fdc565b908482036060860152613fdc565b90151560808301520390f35b346103585760403660031901126103585761049a614001565b602435906104b2906001600160a01b03163014614704565b5f818152601260205260409020549081156104f157506104d181614bf1565b604080516001600160a01b039290921682526020820192909252f35b0390f35b6104fa90614bf1565b6104d1565b3461035857604036600319011261035857610518614001565b610520614017565b9060018060a01b038091165f52600560205260405f2091165f52602052602060ff60405f2054166040519015158152f35b34610358576020366003190112610358576004355f526012602052602060405f2054604051908152f35b34610358576020366003190112610358576004355f52600c60205260405f20805460ff1690600181016105ad90613f19565b906105ba60028201613f19565b6105c660038301613f19565b916105d360048201613f19565b926105e060058301613f19565b9360068301549460078401546008850154600986015491600a87015493600b88015495600d89015460ff1697600e8a015499600f015460ff169a6040519e8f9e8f916101e09061062f8161416b565b8352806020840152820161064291613fdc565b90808203906040015261065491613fdc565b8d810360608f015261066591613fdc565b8c810360808e015261067691613fdc565b8b810360a08d015261068791613fdc565b9860c08b015260e08a01526101008901526101208801526101408701526101608601526106b38161416b565b6101808501526101a084015215156101c08301520390f35b34610358576020366003190112610358575f6004355f52601260205260405f2054908161070e57604080516001600160a01b039290921682526020820192909252f35b50306104d1565b3461035857602036600319011261035857610731600435614bf1565b505f60405161073f81613ec0565b526104ed60405161074f81613ec0565b5f8152604051918291602083526020830190613fdc565b3461035857602080600319360112610358576004356001600160401b03811161035857610797903690600401614094565b90600854916107a58361425c565b925f9183810190835b83811061080257505050506107c28161425c565b925f5b8281106107e3575050506104ed604051928284938452830190614138565b806107f06001928461428e565b516107fb828861428e565b52016107c5565b61080b81614594565b805f52600c8752600460405f20016040515f825461082881613e35565b8084528b8401946001928d84821691825f146108c457505060011461088b575b5050509061085d816001969594930382613ef8565b5190208451862014610871575b50016107ae565b61088461087d886147db565b978a61428e565b528861086a565b8c93505f52825f20915f925b8284106108af5750505082010161085d826001610848565b80548685018601528d94909301928101610897565b60ff1916885292151560051b8601909201935061085d925084915060019050610848565b346103585760c036600319011261035857610901614001565b6024359061090d61402d565b91606435926084359260a4356001600160401b038111610358576109359036906004016140d6565b50506001600160a01b039081169130831480610a23575b156109e9577fda19c10bf4b88776cd85f9091592a44edff2d94035ec670ebd9e8356f56f887d93602093865f526012855261098c8260405f2054146145cf565b6109a161099883614bf1565b85163314614611565b6109ab8783614c2b565b6109b58789614850565b7f3c619d5b30fb8431c0c0094f4485f1859d63f222f36cc2104cc13e56c2b993d385604051898152a36040519485521692a3005b60405162461bcd60e51b815260206004820152601260248201527153616d652d636f6e7472616374206f6e6c7960701b6044820152606490fd5b50308282161461094c565b3461035857602080600319360112610358576004355f52600d815260405f20908154610a59816140b2565b92610a676040519485613ef8565b8184525f908152828120838086015b848410610a9057604051828152806104ed8185018a614189565b600191600891604051610aa281613e89565b8554815284860154838201526002860154604082015260038601546060820152610ace60048701613f19565b6080820152610adf60058701613f19565b60a0820152600686015460c082015260ff600787015416151560e08201528152019201920191908490610a76565b3461035857608036600319011261035857600435610b29614017565b90610b3261402d565b6001600160a01b0390811692606435929190610b4f308614614704565b610b64610b5b84614bf1565b8316331461479c565b835f5260126020528260405f205403610bc4577f0ef52e516fb5aec15a5d3587e5480481b702b26db93c8430eca78b61990fd3f691602091610ba68686614c2b565b610bb98682610bb482614bf1565b614d0f565b6040519586521693a4005b60405162461bcd60e51b815260206004820152601960248201527f4e6f742061206368696c64206f66207468697320746f6b656e000000000000006044820152606490fd5b34610358576020366003190112610358576004356001600160401b03811161035857610c39903690600401614094565b602081519101205f52600e602052602060405f2054604051908152f35b3461035857608036600319011261035857610c6f614001565b610c77614017565b90604435606435926001600160401b038411610358573660238501121561035857610caf610ccd94369060248160040135910161405e565b92610cbb8383836142a2565b610cc8848484843361531e565b614e0c565b005b3461035857604036600319011261035857610ce8614017565b306001600160a01b0390911603610d26576004355f5260116020526104ed610d1260405f206144c9565b604051918291602083526020830190614138565b60405162461bcd60e51b815260206004820152602560248201527f4f6e6c792073616d652d636f6e7472616374206368696c6472656e20737570706044820152641bdc9d195960da1b6064820152608490fd5b3461035857602036600319011261035857600435805f52600c60205260ff600f60405f20015416156114a957604051610db181613edb565b6127109182825260208201906204e20092833684376018549165048c273950009280840180941161133e5765048c273950010180931161133e57610e0d610df7846140b2565b93610e056040519586613ef8565b8085526140b2565b601f19013660208501375f906001948351156114955781600192610e3292528561428e565b525f9460405196610e4288613edb565b87523660208801375b8381106113dd578585610e5d8161425c565b90610e67816140b2565b92610e756040519485613ef8565b818452610e81826140b2565b601f19015f5b8181106113525750505f915f5b8181106111d45750610ea5836140b2565b92610eb36040519485613ef8565b808452610ec2601f19916140b2565b015f5b8181106111815750505f805b82821061105d5750505050604051928391610ef6606094606085526060850190614138565b8381036020850152825190818152602081016020808460051b8401019501965f925b848410610f335787806104ed89898382036040850152614189565b9193956001919395975060208091601f198582030187528a519061101d610fc9610fb6610fa3610f93610f816102008851610f6d8161416b565b88528989015190808b8a0152880190613fdc565b60408801518782036040890152613fdc565b8b8701518682038d880152613fdc565b6080808701519086830390870152613fdc565b60a0808601519085830390860152613fdc565b60c0808501519084015260e084015160e08401526101008085015190840152610120808501519084015261014080850151908401526101608085015190840152610180808501519084830390850152614138565b916101a0808201519061102f8261416b565b8301526101c080820151908301526101e0809101511515910152990194019401918896949197959397610f18565b929561106e8288979396949761428e565b515f52600d60205260405f20958654611086816140b2565b97611094604051998a613ef8565b81895260208901905f5260205f20905f905b83821061110557505050505f5b87518110156110f057806110e96110cc6001938b61428e565b51976110d7816147db565b986110e2828a61428e565b528761428e565b50016110b3565b50909691955091939092600190910190610ed1565b6008602060019260405161111881613e89565b865481528487015483820152600287015460408201526003870154606082015261114460048801613f19565b608082015261115560058801613f19565b60a0820152600687015460c082015260ff600788015416151560e08201528152019301910190916110a6565b60209060409796979493945161119681613e89565b5f81525f838201525f604082015260605f8183015280608083015260a08201525f60c08201525f60e082015282828801015201959495929192610ec5565b926111e48484939497969761428e565b516111ef858861428e565b526111fa848361428e565b515f52600c60205260405f2060405161121281613e6d565b60ff8254166112208161416b565b815261122e60018301613f19565b602082015261123f60028301613f19565b604082015261125060038301613f19565b606082015261126160048301613f19565b608082015261127260058301613f19565b60a0820152600682015460c0820152600782015460e082015260088201546101008201526009820154610120820152600a820154610140820152600b8201546101608201526112c3600c83016144c9565b61018082015260ff600f600d938285820154166112df8161416b565b6101a0850152600e8101546101c085015201541615156101e0820152611305868861428e565b52611310858761428e565b5061131b858461428e565b515f5260205260405f2054810180911161133e5793949392909190600101610e94565b634e487b7160e01b5f52601160045260245ffd5b60209060409695969493945161136781613e6d565b5f81526060808483015280604083015280808301528060808301528060a08301525f60c08301525f60e08301525f6101008301525f6101208301525f6101408301525f6101608301526101808201525f6101a08201525f6101c08201525f6101e082015282828801015201949394929192610e87565b90919392946113f56113ee836147db565b928461428e565b518061140a611403876147db565b968461428e565b525f52601160205261141e60405f206144c9565b935f5b8551811015611488578061144161143a6001938961428e565b518961428e565b511561144e575b01611421565b611458818861428e565b5161146c6114658b6147db565b9a8861428e565b528161148261147b838a61428e565b518a61428e565b52611448565b5094929190959350610e4b565b634e487b7160e01b5f52603260045260245ffd5b60405162461bcd60e51b815260206004820152601960248201527f526f6f7420746f6b656e20646f6573206e6f74206578697374000000000000006044820152606490fd5b3461035857602080600319360112610358576004355f526013815260405f209081549161151a836140b2565b926115286040519485613ef8565b80845282840180925f52835f205f915b8383106115e55750505050604051918083019381845251809452604083019360408160051b85010192915f955b8287106115725785850386f35b909192938280600192603f198982030185528751906115c96115b660a0878060a01b0385511684528585015186850152604085015190806040860152840190613fdc565b6060808501519084830390850152613fdc565b9160808091015115159101529601920196019592919092611565565b6005866001926040999899516115fa81613ea5565b848060a01b038654168152848601548382015261161960028701613f19565b604082015261162a60038701613f19565b606082015260ff60048701541615156080820152815201920192019190959495611538565b346103585760403660031901126103585760243560043560058210156103585761168b6116868261167f81614bf1565b3390614d8a565b614611565b805f52600c602052600d60405f2001916116aa8160ff855416946146ec565b604051926116b78161416b565b83526116c28161416b565b60208301527fb21ccf09829cfb23c3ecf6dfcab21c0ca11a98f41993f2123d618e1b47b3d2f860403393a3005b3461035857604036600319011261035857611708614001565b6024359081151590818303610358576001600160a01b03169182156117805761175290335f52600560205260405f20845f5260205260405f209060ff801983541691151516179055565b6040519081527f17307eab39ab6107e8899845ad3d59bd9653f200f220920489ca2b5937696c3160203392a3005b604051630b61174360e31b815260048101849052602490fd5b34610358575f366003190112610358576040515f600182600154926117bd84613e35565b92838352602094856001821691825f146118575750506001146117fc575b506117e892500383613ef8565b6104ed604051928284938452830190613fdc565b84915060015f527fb10e2d527612073b26eecdfd717e6a320cf44b4afac2b0732d9fcbe2b7fa0cf6905f915b85831061183f5750506117e89350820101856117db565b80548389018501528794508693909201918101611828565b60ff1916858201526117e895151560051b85010192508791506117db9050565b34610358575f36600319011261035857600a546040516001600160a01b039091168152602090f35b346103585760c0366003190112610358576004356118bb614017565b6001600160a01b0360643581811693604435939091859003610358576084359260a4356001600160401b03811161035857611928926119016119179236906004016140d6565b505061190e308914614704565b82163014614750565b61192083614bf1565b16331461479c565b815f5260126020528060405f2054036119ac5780611947838693614c2b565b6119518385614850565b604051908382527f0ef52e516fb5aec15a5d3587e5480481b702b26db93c8430eca78b61990fd3f660203093a46040519081527f0371ddf2288ad1ba92626a7e31c86a9d006e592cfe57d7d946ef08b13457c08b60203392a4005b60405162461bcd60e51b815260206004820152600b60248201526a139bdd08184818da1a5b1960aa1b6044820152606490fd5b34610358576020366003190112610358576004356001600160401b03811161035857611a286020611a1581933690600401614094565b8160405193828580945193849201613fbb565b8101601081520301902054604051908152f35b34610358576080366003190112610358576004356001600160401b0360243581811161035857611a6f903690600401614094565b9160443582811161035857611a88903690600401614094565b926064358015159081810361035857611aa76116868561167f81614bf1565b60405194611ab486613ea5565b338652602096878701914283526040880192868452606089019283526080890193868552885f5260138b5260405f20918254600160401b811015611d4757611b03906001948582018155614243565b9b909b611df457518b546001600160a01b0319166001600160a01b0391909116178b5551828b015551805160028b0190848111611d4757808d611b468454613e35565b94601f95868111611dc8575b5081868411600114611d6657505f92611d5b575b50505f19600383901b1c191690841b1790555b60038a0193518051938411611d4757611b928554613e35565b8c838211611d10575b50508b918411600114611c7f57928080611c0697947fdc3aa61e406fa65d10be19f53b8e27357fdbe9c207c7111cf05507a872b34d269c9d97946004975f94611c74575b50501b915f199060031b1c19161790555b51151591019060ff801983541691151516179055565b80611c50575b611c32575b611c2660405192604084526040840190613fdc565b948201528033940390a3005b835f52600c8552600d60405f2001600460ff19825416179055611c11565b50835f52600c8552600360ff600d60405f20015416611c6e8161416b565b14611c0c565b015192508f80611bdf565b5f8581528c8120939493929190601f198516908e5b828210611cf957505092600495928592611c0699967fdc3aa61e406fa65d10be19f53b8e27357fdbe9c207c7111cf05507a872b34d269e9f999610611ce1575b505050811b019055611bf0565b01515f1960f88460031b161c191690558d8080611cd4565b808886978294978701518155019601940190611c94565b611d3791875f5284825f209181890160051c8301938910611d3e575b0160051c01906146d6565b8c8c611b9b565b92508192611d2c565b634e487b7160e01b5f52604160045260245ffd5b015190508e80611b66565b9190879450601f198416865f52835f20935f905b828210611daf5750508411611d97575b505050811b019055611b79565b01515f1960f88460031b161c191690558e8080611d8a565b8484015186558a97909501949384019390810190611d7a565b611dee90865f52835f208880870160051c820192868810611d3e570160051c01906146d6565b5f611b52565b634e487b7160e01b5f525f60045260245ffd5b34610358576020366003190112610358576020611e25600435614684565b60405190611e328161416b565b8152f35b34610358575f3660031901126103585760a060145460155460165460175490601854926040519485526020850152604084015260608301526080820152f35b34610358575f36600319011261035857611e8d6147e9565b600a80546001600160a01b031981169091555f906001600160a01b03167f8be0079c531659141344cd1fd0a4f28419497f9722a3daafe3b4186f6b6457e08280a3005b34610358576020366003190112610358576020611ef3611eee614001565b61464e565b604051908152f35b34610358576020366003190112610358576020611f19600435614bf1565b6040516001600160a01b039091168152f35b34610358576020366003190112610358576004356001600160401b03811161035857611f616020611a1581933690600401614094565b8101600f81520301902054604051908152f35b346103585760a036600319011261035857611f8d614001565b60243590611f9961402d565b606435916084356001600160401b03811161035857611fbc9036906004016140d6565b50506001600160a01b0390811692308403612037576102f8817f3c619d5b30fb8431c0c0094f4485f1859d63f222f36cc2104cc13e56c2b993d394612024602095835f52601287526120138a60405f2054146145cf565b61201c8a614bf1565b163314614611565b61202e8289614c2b565b610bb482614bf1565b60405162461bcd60e51b815260206004820152601260248201527113db9b1e481cd85b594b58dbdb9d1c9858dd60721b6044820152606490fd5b34610358576020366003190112610358576020611ef3600435614594565b34610358576020366003190112610358576004355f52600e602052602060405f2054604051908152f35b34610358576020366003190112610358576020611f19600435614517565b3461035857610ccd6120e836614103565b90604051926120f684613ec0565b5f8452610cbb8383836142a2565b346103585760403660031901126103585761211d614001565b6024359061212a8161464e565b8210156121595760018060a01b03165f52600660205260405f20905f52602052602060405f2054604051908152f35b60405163295f44f760e21b81526001600160a01b039190911660048201526024810191909152604490fd5b34610358576020366003190112610358576004355f5260116020526104ed610d1260405f206144c9565b3461035857610ccd6121bf36614103565b916142a2565b346103585760203660031901126103585760606004356121e481614517565b905f52601260205260405f20546040519160018060a01b0316825280602083015215156040820152f35b34610358575f366003190112610358576020600854604051908152f35b3461035857608036600319011261035857612244614001565b5061224d614017565b6044356064356001600160401b0381116103585761226f9036906004016140d6565b602081101561228b575b604051630a85bd0160e11b8152602090f35b8160209181010312610358573590815f52600c60205260ff600f60405f200154166122b7575b80612279565b6122c18183614850565b60405190815233926001600160a01b0316907f0371ddf2288ad1ba92626a7e31c86a9d006e592cfe57d7d946ef08b13457c08b90602090a48080806122b1565b346103585760403660031901126103585761231a614001565b60243561232681614bf1565b331515806123cf575b806123a6575b61238e576001600160a01b039283169282918491167f8c5be1e5ebec7d5bd14f71427d1e84f3dd0314c0f7b2291e5b200ac8c7c3b9255f80a45f90815260046020526040902080546001600160a01b0319169091179055005b60405163a9fbf51f60e01b8152336004820152602490fd5b5060018060a01b0381165f52600560205260405f20335f5260205260ff60405f20541615612335565b506001600160a01b03811633141561232f565b34610358576020366003190112610358576004356123ff81614bf1565b505f526004602052602060018060a01b0360405f205416604051908152f35b34610358575f366003190112610358576040515f8054908261243f83613e35565b91828252602093600190856001821691825f1461185757505060011461246c57506117e892500383613ef8565b5f808052859250907f290decd9548b62a8d60345a988386fc84ba6bc95484008f6362f93160ef3e5635b8583106124ad5750506117e89350820101856117db565b80548389018501528794508693909201918101612496565b346103585760a0366003190112610358576124de614001565b6044356001600160401b038111610358576124fd903690600401614094565b906001600160401b03606435116103585736602360643501121561035857606435600401359161252c836140b2565b9261253a6040519485613ef8565b80845260208401903660248260051b60643501011161035857602460643501915b60248260051b60643501018310613a22575050506001600160401b0360843511610358573660236084350112156103585761259b608435600401356140b2565b916125a96040519384613ef8565b608435600401358352602083013660246084356004013560051b60843501011161035857602460843501905b60246084356004013560051b6084350101821061393a5750506125f66147e9565b6002600b5414613928576002600b556001600160a01b038116156138e35783511561389e576126266014546147db565b93846014558464e8d4a510000164e8d4a510001161133e5761264f8564e8d4a510000183614f92565b60405161265b81613ec0565b5f81526040519061266b82613e6d565b5f825260405161267a81613ec0565b5f8152602083015260405161268e81613ec0565b5f815260408301526040516126a281613ec0565b5f815260608301526040518060408101106001600160401b03604083011117611d475760408101604052600a815269125998d41c9bda9958dd60b21b602082015260808301528460a08301525f60c08301525f60e08301525f6101008301526024356101208301525f6101408301525f6101608301526101808201525f6101a0820152426101c082015260016101e08201528564e8d4a51000015f52600c60205260405f209080516127538161416b565b61275c8161416b565b60ff8019845416911617825560208101518051906001600160401b038211611d4757819061278d6001860154613e35565b601f811161386b575b50602090601f83116001146137fd575f926137f2575b50508160011b915f199060031b1c19161760018301555b60408101518051906001600160401b038211611d475781906127e86002860154613e35565b601f81116137bf575b50602090601f8311600114613751575f92613746575b50508160011b915f199060031b1c19161760028301555b60608101518051906001600160401b038211611d475781906128436003860154613e35565b601f8111613713575b50602090601f83116001146136a5575f9261369a575b50508160011b915f199060031b1c19161760038301555b60808101518051906001600160401b038211611d4757819061289e6004860154613e35565b601f8111613667575b50602090601f83116001146135f9575f926135ee575b50508160011b915f199060031b1c19161760048301555b60a08101518051906001600160401b038211611d475781906128f96005860154613e35565b601f81116135bb575b50602090601f831160011461354d575f92613542575b50508160011b915f199060031b1c19161760058301555b60c0810151600683015560e0810151600783015561010081015160088301556101208101516009830155610140810151600a830155610160810151600b8301556101808101518051906001600160401b038211611d4757600160401b8211611d4757602090600c85015483600c870155808410613524575b5001600c84015f5260205f205f5b838110613510575050505090600f6101e0836129e56101a0612a079601516129dc8161416b565b600d86016146ec565b6101c0810151600e8501550151151591019060ff801983541691151516179055565b612a11815161425c565b935f5b825181101561325e57612a27818461428e565b51612a3b8151612a368161416b565b614ea0565b90612a468287614f92565b815f52600c60205260405f208151612a5d8161416b565b612a668161416b565b60ff8019835416911617815560208201518051906001600160401b038211611d47578190612a976001850154613e35565b601f811161322b575b50602090601f83116001146131bd575f926131b2575b50508160011b915f199060031b1c19161760018201555b60408201518051906001600160401b038211611d47578190612af26002850154613e35565b601f811161317f575b50602090601f8311600114613111575f92613106575b50508160011b915f199060031b1c19161760028201555b60608201518051906001600160401b038211611d47578190612b4d6003850154613e35565b601f81116130d3575b50602090601f8311600114613065575f9261305a575b50508160011b915f199060031b1c19161760038201555b60808201518051906001600160401b038211611d47578190612ba86004850154613e35565b601f8111613027575b50602090601f8311600114612fb9575f92612fae575b50508160011b915f199060031b1c19161760048201555b60a08201518051906001600160401b038211611d47578190612c036005850154613e35565b601f8111612f70575b50602090601f8311600114612f02575f92612ef7575b50508160011b915f199060031b1c19161760058201555b60c0820151600682015560e0820151600782015561010082015160088201556101208201516009820155610140820151600a820155610160820151600b8201556101808201518051906001600160401b038211611d4757600160401b8211611d4757602090600c84015483600c860155808410612ed9575b5001600c83015f5260205f205f5b838110612ec55750505050917fa03b779031331193dddb836f080e17fbd1d0ceb468aae35751a0fa141372440582612d3860019695612d106101a086970151612d078161416b565b600d83016146ec565b6101c0830151600e820155600f6101e0840151151591019060ff801983541691151516179055565b825f52600c602052600d60405f20600f81018860ff1982541617905542600e8201550160ff198154169055602081015180519081612ead575b5050826060820151805180612e84575b50506040820151805180612e5b575b5050508051612d9e8161416b565b602082015191612de6610160606083015192015191612dd86040519585612dc5889761416b565b8652608060208701526080860190613fdc565b908482036040860152613fdc565b9060608301520390a280612dfa838a61428e565b52610160612e08838761428e565b51015115612e2f57612e2990610160612e21848861428e565b510151614850565b01612a14565b8864e8d4a51000018103612e44575b50612e29565b612e55908964e8d4a5100001614850565b88612e3e565b60209181612e7184936040518096819501613fbb565b8101601081520301902055828d80612d90565b60209181612e9a84936040518096819501613fbb565b8101600f81520301902055828d80612d81565b602001205f52600e6020528260405f20558c80612d71565b600190602084519401938184015501612cbf565b612ef190600c86015f5284845f2091820191016146d6565b8d612cb1565b015190508c80612c22565b9250600584015f5260205f20905f935b601f1984168510612f55576001945083601f19811610612f3d575b505050811b016005820155612c39565b01515f1960f88460031b161c191690558c8080612f2d565b81810151835560209485019460019093019290910190612f12565b612f9e90600586015f5260205f20601f850160051c81019160208610612fa4575b601f0160051c01906146d6565b8d612c0c565b9091508190612f91565b015190508c80612bc7565b9250600484015f5260205f20905f935b601f198416851061300c576001945083601f19811610612ff4575b505050811b016004820155612bde565b01515f1960f88460031b161c191690558c8080612fe4565b81810151835560209485019460019093019290910190612fc9565b61305490600486015f5260205f20601f850160051c81019160208610612fa457601f0160051c01906146d6565b8d612bb1565b015190508c80612b6c565b9250600384015f5260205f20905f935b601f19841685106130b8576001945083601f198116106130a0575b505050811b016003820155612b83565b01515f1960f88460031b161c191690558c8080613090565b81810151835560209485019460019093019290910190613075565b61310090600386015f5260205f20601f850160051c81019160208610612fa457601f0160051c01906146d6565b8d612b56565b015190508c80612b11565b9250600284015f5260205f20905f935b601f1984168510613164576001945083601f1981161061314c575b505050811b016002820155612b28565b01515f1960f88460031b161c191690558c808061313c565b81810151835560209485019460019093019290910190613121565b6131ac90600286015f5260205f20601f850160051c81019160208610612fa457601f0160051c01906146d6565b8d612afb565b015190508c80612ab6565b9250600184015f5260205f20905f935b601f1984168510613210576001945083601f198116106131f8575b505050811b016001820155612acd565b01515f1960f88460031b161c191690558c80806131e8565b818101518355602094850194600190930192909101906131cd565b61325890600186015f5260205f20601f850160051c81019160208610612fa457601f0160051c01906146d6565b8d612aa0565b508486855f5b84518110156134a2576040613279828761428e565b5101518451118061348a575b613292575b600101613264565b6132aa60406132a1838861428e565b5101518561428e565b516132b5828761428e565b51526132c660606132a1838861428e565b5160206132d3838861428e565b5101526132e0818661428e565b519081515f52600c60205260ff600f60405f20015416156134455760208201515f52600c60205260ff600f60405f20015416156134075781600192515f52600d6020526133308160405f20614991565b60e0810151613394575b80517fbd8aa6056ea7b2a2951df3c821d4d26826aa2fe6a1a3998b09d3d2f2a54d460861338460208401519360c06080820151910151604051928392604084526040840190613fdc565b9060208301520390a3905061328a565b613402602082015182516060840151604085015160808601519060a08701519260c088015194604051966133c788613e89565b8752602087015260408601526060850152608084015260a083015260c08201528460e082015260208301515f52600d60205260405f20614991565b61333a565b60405162461bcd60e51b8152602060048201526016602482015275151bc81b9bd91948191bd95cc81b9bdd08195e1a5cdd60521b6044820152606490fd5b60405162461bcd60e51b815260206004820152601860248201527f46726f6d206e6f646520646f6573206e6f7420657869737400000000000000006044820152606490fd5b506060613497828761428e565b510151845111613285565b6020838387895190516134c060405193606085526060850190613fdc565b918584015260408301527fd7bcce33585d083023fec5563acb06b6579b7ef3e09b47f7ef795bc29eb0c9e160243592808564e8d4a5100001930390a36001600b556040519064e8d4a51000018152f35b6001906020845194019381840155016129b5565b61353c90600c87015f5284845f2091820191016146d6565b8a6129a7565b015190508980612918565b9250600585015f5260205f20905f935b601f19841685106135a0576001945083601f19811610613588575b505050811b01600583015561292f565b01515f1960f88460031b161c19169055898080613578565b8181015183556020948501946001909301929091019061355d565b6135e890600587015f5260205f20601f850160051c81019160208610612fa457601f0160051c01906146d6565b8a612902565b0151905089806128bd565b9250600485015f5260205f20905f935b601f198416851061364c576001945083601f19811610613634575b505050811b0160048301556128d4565b01515f1960f88460031b161c19169055898080613624565b81810151835560209485019460019093019290910190613609565b61369490600487015f5260205f20601f850160051c81019160208610612fa457601f0160051c01906146d6565b8a6128a7565b015190508980612862565b9250600385015f5260205f20905f935b601f19841685106136f8576001945083601f198116106136e0575b505050811b016003830155612879565b01515f1960f88460031b161c191690558980806136d0565b818101518355602094850194600190930192909101906136b5565b61374090600387015f5260205f20601f850160051c81019160208610612fa457601f0160051c01906146d6565b8a61284c565b015190508980612807565b9250600285015f5260205f20905f935b601f19841685106137a4576001945083601f1981161061378c575b505050811b01600283015561281e565b01515f1960f88460031b161c1916905589808061377c565b81810151835560209485019460019093019290910190613761565b6137ec90600287015f5260205f20601f850160051c81019160208610612fa457601f0160051c01906146d6565b8a6127f1565b0151905089806127ac565b9250600185015f5260205f20905f935b601f1984168510613850576001945083601f19811610613838575b505050811b0160018301556127c3565b01515f1960f88460031b161c19169055898080613828565b8181015183556020948501946001909301929091019061380d565b61389890600187015f5260205f20601f850160051c81019160208610612fa457601f0160051c01906146d6565b8a612796565b60405162461bcd60e51b815260206004820152601b60248201527f4d7573742068617665206174206c65617374206f6e65206e6f646500000000006044820152606490fd5b60405162461bcd60e51b815260206004820152601b60248201527f43616e6e6f74206d696e7420746f207a65726f206164647265737300000000006044820152606490fd5b604051633ee5aeb560e01b8152600490fd5b81356001600160401b03811161035857610100608435820136036023190112610358576040519161396a83613e89565b60848035830160248101358552604481013560208601526064810135604086015290810135606085015260a401356001600160401b038111610358576139ba906024369185608435010101614094565b60808401526001600160401b0360c48360843501013511610358576020928392613a1290610104906139f936608435830160c481013501602401614094565b60a08501526084350160e481013560c0850152016140c9565b60e08201528152019101906125d5565b82356001600160401b038111610358576102006064358201360360231901126103585760405191613a5283613e6d565b60248260643501013560058110156103585783526044826064350101356001600160401b03811161035857613a91906024369185606435010101614094565b602084015260648281350101356001600160401b03811161035857613ac0906024369185606435010101614094565b60408401526084826064350101356001600160401b03811161035857613af0906024369185606435010101614094565b606084015260a4826064350101356001600160401b03811161035857613b20906024369185606435010101614094565b60808401526001600160401b0360c4836064350101351161035857613b5236606435840160c481013501602401614094565b60a0840152606435820160e481013560c085015261010481013560e08501526101248101356101008501526101448101356101208501526101648101356101408501526101848101356101608501526101a401356001600160401b0381116103585736604382856064350101011215610358576024818460643501010135613bd9816140b2565b91613be76040519384613ef8565b81835260208301903660448460051b838960643501010101116103585760448187606435010101915b60448460051b8389606435010101018310613c8457505050506101808401526101c4826064350101359060058210156103585783613c7161020460209586956101a060249901526101e4816064350101356101c085015260643501016140c9565b6101e0820152815201930192905061255b565b8235815260209283019201613c10565b346103585760203660031901126103585760043563ffffffff60e01b811680910361035857602090631ca8ba7160e01b8114908115613d3d575b8115613ce0575b506040519015158152f35b63780e9d6360e01b811491508115613cfa575b5082613cd5565b6380ac58cd60e01b811491508115613d2c575b8115613d1b575b5082613cf3565b6301ffc9a760e01b14905082613d14565b635b5e139f60e01b81149150613d0d565b63e799ab6960e01b81149150613cce565b3461035857613d5c36613e06565b905f52600d60205260405f2090815481101561035857613d7b91613e1c565b50805490600181015490600281015492613df5600383015491613de7613da360048601613f19565b613daf60058701613f19565b9260ff600760068901549801541695604051998a99610100938b5260208b015260408a01526060890152806080890152870190613fdc565b9085820360a0870152613fdc565b9160c0840152151560e08301520390f35b6040906003190112610358576004359060243590565b8054821015611495575f5260205f209060031b01905f90565b90600182811c92168015613e63575b6020831014613e4f57565b634e487b7160e01b5f52602260045260245ffd5b91607f1691613e44565b61020081019081106001600160401b03821117611d4757604052565b61010081019081106001600160401b03821117611d4757604052565b60a081019081106001600160401b03821117611d4757604052565b602081019081106001600160401b03821117611d4757604052565b6204e22081019081106001600160401b03821117611d4757604052565b90601f801991011681019081106001600160401b03821117611d4757604052565b9060405191825f8254613f2b81613e35565b908184526020946001916001811690815f14613f995750600114613f5b575b505050613f5992500383613ef8565b565b5f90815285812095935091905b818310613f81575050613f5993508201015f8080613f4a565b85548884018501529485019487945091830191613f68565b92505050613f5994925060ff191682840152151560051b8201015f8080613f4a565b5f5b838110613fcc5750505f910152565b8181015183820152602001613fbd565b90602091613ff581518092818552858086019101613fbb565b601f01601f1916010190565b600435906001600160a01b038216820361035857565b602435906001600160a01b038216820361035857565b604435906001600160a01b038216820361035857565b6001600160401b038111611d4757601f01601f191660200190565b92919261406a82614043565b916140786040519384613ef8565b829481845281830111610358578281602093845f960137010152565b9080601f83011215610358578160206140af9335910161405e565b90565b6001600160401b038111611d475760051b60200190565b3590811515820361035857565b9181601f84011215610358578235916001600160401b038311610358576020838186019501011161035857565b6060906003190112610358576001600160a01b0390600435828116810361035857916024359081168103610358579060443590565b9081518082526020808093019301915f5b828110614157575050505090565b835185529381019392810192600101614149565b6005111561417557565b634e487b7160e01b5f52602160045260245ffd5b908082519081815260208091019281808460051b8301019501935f915b8483106141b65750505050505090565b9091929394958480600192601f1985820301865289519061421d61420a6101008451845285850151868501526040808601519085015260608086015190850152608090808287015192860152840190613fdc565b60a0808501519084830390850152613fdc565b9160c0808201519083015260e080910151151591015298019301930191949392906141a6565b8054821015611495575f52600560205f20910201905f90565b90614266826140b2565b6142736040519182613ef8565b8281528092614284601f19916140b2565b0190602036910137565b80518210156114955760209160051b010190565b906001600160a01b038082169081156144b157845f5260206002815260409282845f2054169433614466575b85158015614435575b825f5260038452855f2060018154019055885f5260028452855f20836001600160601b0360a01b8254161790558883887fddf252ad1be2c89b69c2b068fc378daa952ba7f163c4a11628f55a4df523b3ef5f80a4156143c957600854885f5260098452855f205561434788614815565b81860361438e575b505050831682036143605750505050565b516364283d7b60e01b81526001600160a01b0392831660048201526024810193909352166044820152606490fd5b6143979061464e565b5f1981019290831161133e576007915f5260068152845f20835f52815287855f2055875f5252825f20555f808061434f565b858214614347576143d98661464e565b885f5260078452855f205490875f5260068552865f2091818103614413575b50895f52600785525f878120555f5283525f85812055614347565b815f52828652875f2054815f5280895f20555f5260078652875f20555f6143f8565b5f89815260046020526040812080546001600160a01b03191690558781526003855286902080545f190190556142d7565b614471883388614d8a565b6142ce57848887614492576024915190637e27328960e01b82526004820152fd5b905163177e802f60e01b81523360048201526024810191909152604490fd5b604051633250574960e11b81525f6004820152602490fd5b90604051918281549182825260209260208301915f5260205f20935f905b8282106144fd57505050613f5992500383613ef8565b8554845260019586019588955093810193909101906144e7565b61452081614bf1565b905b5f52601260205260405f2054908115614545575061453f81614bf1565b90614522565b905090565b6008548110156114955760085f527ff3f7a9fe364faab93b216da50a3214154f22a0a2b415b23a84c8169e8b636ee301905f90565b8054821015611495575f5260205f2001905f90565b6008548110156145b1576145a79061454a565b90549060031b1c90565b6044906040519063295f44f760e21b82525f60048301526024820152fd5b156145d657565b60405162461bcd60e51b8152602060048201526013602482015272139bdd0818da1a5b19081bd9881c185c995b9d606a1b6044820152606490fd5b1561461857565b60405162461bcd60e51b815260206004820152600e60248201526d139bdd08185d5d1a1bdc9a5e995960921b6044820152606490fd5b6001600160a01b0316801561466c575f52600360205260405f205490565b6040516322718ad960e21b81525f6004820152602490fd5b65048c273950008110156146d0576503a3529440008110156146ca576502ba7def30008110156146c4576501d1a94a200011156146bf575f90565b600190565b50600290565b50600390565b50600490565b8181106146e1575050565b5f81556001016146d6565b906146f68161416b565b60ff80198354169116179055565b1561470b57565b60405162461bcd60e51b815260206004820152601b60248201527f4f6e6c792073616d652d636f6e7472616374206368696c6472656e00000000006044820152606490fd5b1561475757565b60405162461bcd60e51b815260206004820152601a60248201527f4f6e6c792073616d652d636f6e747261637420706172656e74730000000000006044820152606490fd5b156147a357565b60405162461bcd60e51b815260206004820152601060248201526f2737ba103830b932b73a1037bbb732b960811b6044820152606490fd5b5f19811461133e5760010190565b600a546001600160a01b031633036147fd57565b60405163118cdaa760e01b8152336004820152602490fd5b60085490600160401b821015611d4757614838826001613f59940160085561454a565b90919082549060031b91821b915f19901b1916179055565b90815f52602090600c825260409060ff600f835f200154161561495557805f52600c835260ff600f835f200154161561491a57805f5260128352815f20546148d657835f5260118352815f2092835491600160401b831015611d47576148c48161483885600b986001600c9801815561457f565b5f526012815284835f2055525f200155565b815162461bcd60e51b815260048101849052601860248201527f4368696c6420616c72656164792068617320706172656e7400000000000000006044820152606490fd5b815162461bcd60e51b815260048101849052601460248201527310da1a5b1908191bd95cc81b9bdd08195e1a5cdd60621b6044820152606490fd5b815162461bcd60e51b815260048101849052601560248201527414185c995b9d08191bd95cc81b9bdd08195e1a5cdd605a1b6044820152606490fd5b908154600160401b811015611d47576149b1906001938482018155613e1c565b919091611df4578051825560209283820151818401556040820151600284015560608201516003840155600483016080830151918251916001600160401b0392838111611d475780614a038354613e35565b95601f968a888211614bc4575b50508990878311600114614b65575f92614b5a575b50505f19600383901b1c191690831b1790555b600585019260a0850151968751938411611d4757614a568554613e35565b828111614b2e575b5080918411600114614abe575091808060e0959360079795613f599a5f94614ab3575b50501b915f199060031b1c19161790555b60c081015160068501550151151591019060ff801983541691151516179055565b015192505f80614a81565b9193949596601f198416865f52835f20935f905b828210614b175750509260e095928592613f599a99966007999610614aff575b505050811b019055614a92565b01515f1960f88460031b161c191690555f8080614af2565b808886978294978701518155019601940190614ad2565b614b5490865f52825f208480880160051c820192858910611d3e570160051c01906146d6565b5f614a5e565b015190505f80614a25565b90859350601f19831691855f528b5f20925f5b8d828210614bae5750508411614b96575b505050811b019055614a38565b01515f1960f88460031b161c191690555f8080614b89565b8385015186558997909501949384019301614b78565b614bea91865f5289825f209181870160051c8301938710611d3e570160051c01906146d6565b5f8a614a10565b5f818152600260205260409020546001600160a01b0316908115614c13575090565b60249060405190637e27328960e01b82526004820152fd5b5f52601190601160205260405f205f5b815480821015614d05578390614c51838561457f565b929054600393841b1c14614c69575050600101614c3b565b939492935f1993818501918211614cf35750614c999291614c8d614838928761457f565b9054911b1c918561457f565b81548015614cdf570190614cc0614cb0838361457f565b8154905f199060031b1b19169055565b555b5f5260126020525f6040812055600c6020525f600b604082200155565b634e487b7160e01b5f52603160045260245ffd5b634e487b7160e01b5f5260045260245ffd5b5050509050614cc2565b906001600160a01b0390818116156144b15783614d2b91615120565b908082169081614d4e57604051637e27328960e01b815260048101869052602490fd5b831603614d5a57505050565b6040516364283d7b60e01b81526001600160a01b0392831660048201526024810193909352166044820152606490fd5b6001600160a01b039182168015159392909184614da9575b5050505090565b81929394501692828414938415614de9575b508315614dcf575b5050505f808080614da2565b909192505f52600460205260405f205416145f8080614dc3565b9093505f52600560205260405f20825f5260205260ff60405f205416925f614dbb565b9392915f5260209060116020526040614e2760405f206144c9565b5f5b8151811015614e96578086614e3f86938561428e565b515f81815260028952869020548b906001600160a01b0316614e69575b5050506001915001614e29565b82828683614e7f83614e8c999a614e85976142a2565b3361531e565b868b614e0c565b8390865f8a614e5c565b5050505050509050565b614ea98161416b565b80614ed15750614eba6014546147db565b8060145564e8d4a5100090810180911161133e5790565b614eda8161416b565b60018103614f065750614eee6015546147db565b806015556501d1a94a200090810180911161133e5790565b614f0f8161416b565b60028103614f3b5750614f236016546147db565b806016556502ba7def300090810180911161133e5790565b80614f4760039261416b565b03614f6f57614f576017546147db565b806017556503a35294400090810180911161133e5790565b614f7a6018546147db565b8060185565048c2739500090810180911161133e5790565b906040908151614fa181613ec0565b5f81526001600160a01b038481169490851561510957614fc18483615120565b166150f2573b614fd2575b50505050565b906150109491835190630a85bd0160e11b928383523360048401525f6024840152604483015260806064830152818060209889936084830190613fdc565b03815f895af15f91816150b2575b5061507c575050503d5f14615074573d9261503884614043565b9361504583519586613ef8565b84523d5f8286013e5b8351938461506e578251633250574960e11b815260048101859052602490fd5b84925001fd5b60609261504e565b9194506001600160e01b03199091160361509b5750505f808080614fcc565b602492505190633250574960e11b82526004820152fd5b9091508681813d83116150eb575b6150ca8183613ef8565b8101031261035857516001600160e01b03198116810361035857905f61501e565b503d6150c0565b83516339e3563760e11b81525f6004820152602490fd5b8451633250574960e11b81525f6004820152602490fd5b90805f5260206002815260018060a01b0360409080825f2054169485159182156152ed575b81169182159081156152d7575b865f5260028652845f20846001600160601b0360a01b8254161790558684897fddf252ad1be2c89b69c2b068fc378daa952ba7f163c4a11628f55a4df523b3ef5f80a41561526b57600854865f5260098652845f20556151b186614815565b1561521c5750506008545f19939084810190811161133e5760095f948386528181526151e0858720549361454a565b90549060031b1c6151f4816148388661454a565b8652528284205582528120556008548015614cdf5701615216614cb08261454a565b60085590565b81869492939403615230575b505050505090565b6152399061464e565b5f1981019490851161133e576007925f5260068252835f20855f52825280845f20555f52525f20555f80808080615228565b8683146151b15761527b8761464e565b865f5260078652845f205490885f5260068752855f20918181036152b5575b50875f52600787525f868120555f5285525f848120556151b1565b815f52828852865f2054815f5280885f20555f5260078852865f20555f61529a565b835f5260038652845f2060018154019055615152565b5f86815260046020526040812080546001600160a01b03191690558781526003865284902080545f19019055615145565b9293909193843b615331575b5050505050565b604051630a85bd0160e11b8082526001600160a01b039586166004830152938516602482015260448101919091526080606482015260209594909316939290859082908190615384906084830190613fdc565b03815f885af15f9181615428575b506153f1575050503d5f146153e9573d916153ac83614043565b926153ba6040519485613ef8565b83523d5f8285013e5b825192836153e457604051633250574960e11b815260048101849052602490fd5b019050fd5b6060916153c3565b9193506001600160e01b03199091160361541057505f8080808061532a565b60249060405190633250574960e11b82526004820152fd5b9091508581813d8311615461575b6154408183613ef8565b8101031261035857516001600160e01b03198116810361035857905f615392565b503d61543656fea26469706673582212206b903aa1e9abcd8c7dc19e53ee36b6898674da6a39466e3339e6f1730dfd641b64736f6c63430008180033","linkReferences":{}},"methodIdentifiers":{"addVerificationRecord(uint256,string,string,bool)":"80972bc7","approve(address,uint256)":"095ea7b3","balanceOf(address)":"70a08231","childTokensOf(uint256,address)":"b763daf4","getApproved(uint256)":"081812fc","getChildTokens(uint256)":"2b345749","getMintedCounts()":"74b527b0","getNodeEdges(uint256)":"bf898cb7","getParentToken(uint256)":"d98bb087","getSubgraph(uint256)":"b64a35c0","getTokenByIfcGuid(string)":"11f21519","getTokenByKuzuId(string)":"bde6dea4","getTokenByTopologicId(string)":"6a2354bb","getTokenType(uint256)":"76aed2e1","getTokensByIfcType(string)":"c83aa5b2","getVerificationRecords(uint256)":"a79ba200","ifcGuidToTokenId(string)":"60746349","isApprovedForAll(address,address)":"e985e9c5","kuzuToTokenId(bytes32)":"48801b3d","mintBuildingGraph(address,bytes32,string,(uint8,string,string,string,string,string,int256,int256,int256,bytes32,bytes32,uint256,uint256[],uint8,uint256,bool)[],(uint256,uint256,uint256,uint256,string,string,bytes32,bool)[])":"0208e424","name()":"06fdde03","nodeEdges(uint256,uint256)":"00ecaf28","nodeMetadata(uint256)":"d58554bf","onERC721Received(address,address,uint256,bytes)":"150b7a02","owner()":"8da5cb5b","ownerOf(uint256)":"6352211e","ownerOfChild(address,uint256)":"eadb80b8","parentOf(uint256)":"cfa3c132","renounceOwnership()":"715018a6","rootOwnerOf(uint256)":"43a61a8e","rootOwnerOfChild(uint256)":"215952e7","safeTransferChild(uint256,address,uint256,address,uint256,bytes)":"88109d4e","safeTransferFrom(address,address,uint256)":"42842e0e","safeTransferFrom(address,address,uint256,bytes)":"b88d4fde","setApprovalForAll(address,bool)":"a22cb465","supportsInterface(bytes4)":"01ffc9a7","symbol()":"95d89b41","tokenByIndex(uint256)":"4f6ccce7","tokenOfOwnerByIndex(address,uint256)":"2f745c59","tokenURI(uint256)":"c87b56dd","topologicToTokenId(string)":"81d2f02b","totalSupply()":"18160ddd","transferAsChild(address,uint256,address,uint256,uint256,bytes)":"c0a899f2","transferChild(uint256,address,address,uint256)":"bef44f18","transferFrom(address,address,uint256)":"23b872dd","transferFromParent(address,uint256,address,uint256,bytes)":"5e3e2687","transferOwnership(address)":"f2fde38b","transferToParent(address,address,uint256,uint256,bytes)":"f50acfa0","updateConstructionStatus(uint256,uint8)":"a538d0b4","verificationRecords(uint256,uint256)":"ede05666"},"id":40}